{
  "contractName": "TrustedNftEscrow",
  "abi": [
    {
      "anonymous": false,
      "inputs": [
        {
          "indexed": true,
          "internalType": "address",
          "name": "_nftAddress",
          "type": "address"
        },
        {
          "indexed": true,
          "internalType": "uint256",
          "name": "_tokenId",
          "type": "uint256"
        },
        {
          "indexed": true,
          "internalType": "address",
          "name": "_recipient",
          "type": "address"
        }
      ],
      "name": "OwnershipTransferred",
      "type": "event"
    },
    {
      "anonymous": false,
      "inputs": [
        {
          "indexed": false,
          "internalType": "address",
          "name": "operator",
          "type": "address"
        },
        {
          "indexed": false,
          "internalType": "address",
          "name": "from",
          "type": "address"
        },
        {
          "indexed": false,
          "internalType": "uint256",
          "name": "tokenId",
          "type": "uint256"
        },
        {
          "indexed": false,
          "internalType": "bytes",
          "name": "data",
          "type": "bytes"
        },
        {
          "indexed": false,
          "internalType": "uint256",
          "name": "gas",
          "type": "uint256"
        }
      ],
      "name": "Received",
      "type": "event"
    },
    {
      "anonymous": false,
      "inputs": [
        {
          "indexed": true,
          "internalType": "address",
          "name": "oldRelayHub",
          "type": "address"
        },
        {
          "indexed": true,
          "internalType": "address",
          "name": "newRelayHub",
          "type": "address"
        }
      ],
      "name": "RelayHubChanged",
      "type": "event"
    },
    {
      "anonymous": false,
      "inputs": [
        {
          "indexed": true,
          "internalType": "address",
          "name": "account",
          "type": "address"
        }
      ],
      "name": "WhitelistAdminAdded",
      "type": "event"
    },
    {
      "anonymous": false,
      "inputs": [
        {
          "indexed": true,
          "internalType": "address",
          "name": "account",
          "type": "address"
        }
      ],
      "name": "WhitelistAdminRemoved",
      "type": "event"
    },
    {
      "anonymous": false,
      "inputs": [
        {
          "indexed": true,
          "internalType": "address",
          "name": "account",
          "type": "address"
        }
      ],
      "name": "WhitelistedAdded",
      "type": "event"
    },
    {
      "anonymous": false,
      "inputs": [
        {
          "indexed": true,
          "internalType": "address",
          "name": "account",
          "type": "address"
        }
      ],
      "name": "WhitelistedRemoved",
      "type": "event"
    },
    {
      "constant": true,
      "inputs": [
        {
          "internalType": "address",
          "name": "relay",
          "type": "address"
        },
        {
          "internalType": "address",
          "name": "from",
          "type": "address"
        },
        {
          "internalType": "bytes",
          "name": "encodedFunction",
          "type": "bytes"
        },
        {
          "internalType": "uint256",
          "name": "transactionFee",
          "type": "uint256"
        },
        {
          "internalType": "uint256",
          "name": "gasPrice",
          "type": "uint256"
        },
        {
          "internalType": "uint256",
          "name": "gasLimit",
          "type": "uint256"
        },
        {
          "internalType": "uint256",
          "name": "nonce",
          "type": "uint256"
        },
        {
          "internalType": "bytes",
          "name": "approvalData",
          "type": "bytes"
        },
        {
          "internalType": "uint256",
          "name": "",
          "type": "uint256"
        }
      ],
      "name": "acceptRelayedCall",
      "outputs": [
        {
          "internalType": "uint256",
          "name": "",
          "type": "uint256"
        },
        {
          "internalType": "bytes",
          "name": "",
          "type": "bytes"
        }
      ],
      "payable": false,
      "stateMutability": "view",
      "type": "function"
    },
    {
      "constant": false,
      "inputs": [
        {
          "internalType": "address",
          "name": "account",
          "type": "address"
        }
      ],
      "name": "addWhitelistAdmin",
      "outputs": [],
      "payable": false,
      "stateMutability": "nonpayable",
      "type": "function"
    },
    {
      "constant": false,
      "inputs": [
        {
          "internalType": "address",
          "name": "account",
          "type": "address"
        }
      ],
      "name": "addWhitelisted",
      "outputs": [],
      "payable": false,
      "stateMutability": "nonpayable",
      "type": "function"
    },
    {
      "constant": true,
      "inputs": [],
      "name": "getHubAddr",
      "outputs": [
        {
          "internalType": "address",
          "name": "",
          "type": "address"
        }
      ],
      "payable": false,
      "stateMutability": "view",
      "type": "function"
    },
    {
      "constant": true,
      "inputs": [
        {
          "internalType": "address",
          "name": "account",
          "type": "address"
        }
      ],
      "name": "isWhitelistAdmin",
      "outputs": [
        {
          "internalType": "bool",
          "name": "",
          "type": "bool"
        }
      ],
      "payable": false,
      "stateMutability": "view",
      "type": "function"
    },
    {
      "constant": true,
      "inputs": [
        {
          "internalType": "address",
          "name": "account",
          "type": "address"
        }
      ],
      "name": "isWhitelisted",
      "outputs": [
        {
          "internalType": "bool",
          "name": "",
          "type": "bool"
        }
      ],
      "payable": false,
      "stateMutability": "view",
      "type": "function"
    },
    {
      "constant": false,
      "inputs": [
        {
          "internalType": "bytes",
          "name": "context",
          "type": "bytes"
        },
        {
          "internalType": "bool",
          "name": "success",
          "type": "bool"
        },
        {
          "internalType": "uint256",
          "name": "actualCharge",
          "type": "uint256"
        },
        {
          "internalType": "bytes32",
          "name": "preRetVal",
          "type": "bytes32"
        }
      ],
      "name": "postRelayedCall",
      "outputs": [],
      "payable": false,
      "stateMutability": "nonpayable",
      "type": "function"
    },
    {
      "constant": false,
      "inputs": [
        {
          "internalType": "bytes",
          "name": "context",
          "type": "bytes"
        }
      ],
      "name": "preRelayedCall",
      "outputs": [
        {
          "internalType": "bytes32",
          "name": "",
          "type": "bytes32"
        }
      ],
      "payable": false,
      "stateMutability": "nonpayable",
      "type": "function"
    },
    {
      "constant": true,
      "inputs": [],
      "name": "relayHubVersion",
      "outputs": [
        {
          "internalType": "string",
          "name": "",
          "type": "string"
        }
      ],
      "payable": false,
      "stateMutability": "view",
      "type": "function"
    },
    {
      "constant": false,
      "inputs": [
        {
          "internalType": "address",
          "name": "account",
          "type": "address"
        }
      ],
      "name": "removeWhitelisted",
      "outputs": [],
      "payable": false,
      "stateMutability": "nonpayable",
      "type": "function"
    },
    {
      "constant": false,
      "inputs": [],
      "name": "renounceWhitelistAdmin",
      "outputs": [],
      "payable": false,
      "stateMutability": "nonpayable",
      "type": "function"
    },
    {
      "constant": false,
      "inputs": [],
      "name": "renounceWhitelisted",
      "outputs": [],
      "payable": false,
      "stateMutability": "nonpayable",
      "type": "function"
    },
    {
      "constant": false,
      "inputs": [
        {
          "internalType": "address",
          "name": "newRelayHub",
          "type": "address"
        }
      ],
      "name": "upgradeRelayHub",
      "outputs": [],
      "payable": false,
      "stateMutability": "nonpayable",
      "type": "function"
    },
    {
      "constant": false,
      "inputs": [
        {
          "internalType": "address",
          "name": "operator",
          "type": "address"
        },
        {
          "internalType": "address",
          "name": "from",
          "type": "address"
        },
        {
          "internalType": "uint256",
          "name": "tokenId",
          "type": "uint256"
        },
        {
          "internalType": "bytes",
          "name": "data",
          "type": "bytes"
        }
      ],
      "name": "onERC721Received",
      "outputs": [
        {
          "internalType": "bytes4",
          "name": "",
          "type": "bytes4"
        }
      ],
      "payable": false,
      "stateMutability": "nonpayable",
      "type": "function"
    },
    {
      "constant": true,
      "inputs": [
        {
          "internalType": "address",
          "name": "_nftAddress",
          "type": "address"
        },
        {
          "internalType": "uint256",
          "name": "_tokenId",
          "type": "uint256"
        }
      ],
      "name": "isTokenEscrowed",
      "outputs": [
        {
          "internalType": "bool",
          "name": "",
          "type": "bool"
        }
      ],
      "payable": false,
      "stateMutability": "view",
      "type": "function"
    },
    {
      "constant": false,
      "inputs": [
        {
          "internalType": "address",
          "name": "_nftAddress",
          "type": "address"
        },
        {
          "internalType": "uint256",
          "name": "_tokenId",
          "type": "uint256"
        },
        {
          "internalType": "address",
          "name": "_recipient",
          "type": "address"
        }
      ],
      "name": "transferOwnership",
      "outputs": [],
      "payable": false,
      "stateMutability": "nonpayable",
      "type": "function"
    }
  ],
  "bytecode": "0x6080604052600280546001600160a01b03191673d216153c06e857cd7f72665e0af1d7d82172f49417905562000050620000416001600160e01b036200007e16565b6001600160e01b03620000b516565b62000078620000676001600160e01b036200007e16565b6200010760201b6200065c1760201c565b62000339565b6002546000906001600160a01b031633146200009c575033620000b2565b620000af6001600160e01b036200018116565b90505b90565b620000d0816000620001ce60201b620013201790919060201c565b6040516001600160a01b038216907f22380c05984257a1cb900161c713dd71d39e74820f1aea43bd3f1bdd2096129990600090a250565b6200012d6200011e6001600160e01b036200007e16565b6001600160e01b036200025b16565b6200016a5760405162461bcd60e51b8152600401808060200182810382526040815260200180620019346040913960400191505060405180910390fd5b6200017e816001600160e01b036200027e16565b50565b600060606000368080601f0160208091040260200160405190810160405280939291908181526020018383808284376000920191909152505050503601516001600160a01b031692915050565b620001e382826001600160e01b03620002d016565b1562000236576040805162461bcd60e51b815260206004820152601f60248201527f526f6c65733a206163636f756e7420616c72656164792068617320726f6c6500604482015290519081900360640190fd5b6001600160a01b0316600090815260209190915260409020805460ff19166001179055565b600062000278826000620002d060201b62000f551790919060201c565b92915050565b62000299816001620001ce60201b620013201790919060201c565b6040516001600160a01b038216907fee1504a83b6d4a361f4c1dc78ab59bfa30d6a3b6612c403e86bb01ef2984295f90600090a250565b60006001600160a01b038216620003195760405162461bcd60e51b8152600401808060200182810382526022815260200180620019126022913960400191505060405180910390fd5b506001600160a01b03166000908152602091909152604090205460ff1690565b6115c980620003496000396000f3fe608060405234801561001057600080fd5b50600436106101005760003560e01c806383947ea011610097578063ad61ccd511610066578063ad61ccd514610535578063bb5f747b146105b2578063d6cd9473146105d8578063e06e0e22146105e057610100565b806383947ea0146103405780639a4e5020146104ad5780639e30a590146104e3578063a6d605c31461050957610100565b80634c5a628c116100d35780634c5a628c1461026e5780637362d9c81461027657806374e861d61461029c57806380274db7146102c057610100565b806310154bad14610105578063150b7a021461012d578063291d95491461020e5780633af32abf14610234575b600080fd5b61012b6004803603602081101561011b57600080fd5b50356001600160a01b031661065c565b005b6101f16004803603608081101561014357600080fd5b6001600160a01b03823581169260208101359091169160408201359190810190608081016060820135600160201b81111561017d57600080fd5b82018360208201111561018f57600080fd5b803590602001918460018302840111600160201b831117156101b057600080fd5b91908080601f0160208091040260200160405190810160405280939291908181526020018383808284376000920191909152509295506106b3945050505050565b604080516001600160e01b03199092168252519081900360200190f35b61012b6004803603602081101561022457600080fd5b50356001600160a01b03166107a3565b61025a6004803603602081101561024a57600080fd5b50356001600160a01b03166107f2565b604080519115158252519081900360200190f35b61012b61080b565b61012b6004803603602081101561028c57600080fd5b50356001600160a01b031661081d565b6102a461086c565b604080516001600160a01b039092168252519081900360200190f35b61032e600480360360208110156102d657600080fd5b810190602081018135600160201b8111156102f057600080fd5b82018360208201111561030257600080fd5b803590602001918460018302840111600160201b8311171561032357600080fd5b50909250905061087c565b60408051918252519081900360200190f35b61042e600480360361012081101561035757600080fd5b6001600160a01b038235811692602081013590911691810190606081016040820135600160201b81111561038a57600080fd5b82018360208201111561039c57600080fd5b803590602001918460018302840111600160201b831117156103bd57600080fd5b9193909282359260208101359260408201359260608301359260a081019060800135600160201b8111156103f057600080fd5b82018360208201111561040257600080fd5b803590602001918460018302840111600160201b8311171561042357600080fd5b91935091503561091b565b6040518083815260200180602001828103825283818151815260200191508051906020019080838360005b83811015610471578181015183820152602001610459565b50505050905090810190601f16801561049e5780820380516001836020036101000a031916815260200191505b50935050505060405180910390f35b61012b600480360360608110156104c357600080fd5b506001600160a01b03813581169160208101359160409091013516610a60565b61012b600480360360208110156104f957600080fd5b50356001600160a01b0316610cdb565b61025a6004803603604081101561051f57600080fd5b506001600160a01b038135169060200135610d2a565b61053d610db7565b6040805160208082528351818301528351919283929083019185019080838360005b8381101561057757818101518382015260200161055f565b50505050905090810190601f1680156105a45780820380516001836020036101000a031916815260200191505b509250505060405180910390f35b61025a600480360360208110156105c857600080fd5b50356001600160a01b0316610dd6565b61012b610de8565b61012b600480360360808110156105f657600080fd5b810190602081018135600160201b81111561061057600080fd5b82018360208201111561062257600080fd5b803590602001918460018302840111600160201b8311171561064357600080fd5b9193509150803515159060208101359060400135610df8565b61066c610667610e9a565b610dd6565b6106a75760405162461bcd60e51b81526004018080602001828103825260408152602001806114a96040913960400191505060405180910390fd5b6106b081610ec5565b50565b60007f28fa6e16458f9c24aa59ddd4085264573006dbe30304837873c7deafc702b038858585855a60405180866001600160a01b03166001600160a01b03168152602001856001600160a01b03166001600160a01b0316815260200184815260200180602001838152602001828103825284818151815260200191508051906020019080838360005b8381101561075457818101518382015260200161073c565b50505050905090810190601f1680156107815780820380516001836020036101000a031916815260200191505b50965050505050505060405180910390a150630a85bd0160e11b949350505050565b6107ae610667610e9a565b6107e95760405162461bcd60e51b81526004018080602001828103825260408152602001806114a96040913960400191505060405180910390fd5b6106b081610f0d565b600061080560018363ffffffff610f5516565b92915050565b61081b610816610e9a565b610fbc565b565b610828610667610e9a565b6108635760405162461bcd60e51b81526004018080602001828103825260408152602001806114a96040913960400191505060405180910390fd5b6106b081611004565b6002546001600160a01b03165b90565b600061088661086c565b6001600160a01b0316336001600160a01b0316146108d55760405162461bcd60e51b81526004018080602001828103825260248152602001806115716024913960400191505060405180910390fd5b61091483838080601f01602080910402602001604051908101604052809392919081815260200183838082843760009201919091525061104c92505050565b9392505050565b60006060808d8d8d8d8d8d8d8d61093061086c565b30604051602001808b6001600160a01b03166001600160a01b031660601b81526014018a6001600160a01b03166001600160a01b031660601b81526014018989808284379190910197885250506020808701959095526040808701949094526060808701939093526bffffffffffffffffffffffff1991831b8216608087015290911b1660948401528051608881850301815260c8601f8e018490049093028401830190915260a883018c815290975060009650610a2b9550610a26945092508b918b918291018382808284376000920191909152505086516020880120610a1a92509050611052565b9063ffffffff6110a316565b6107f2565b90508015610a4657610a3b611191565b935093505050610a50565b610a3b60006111b5565b9b509b9950505050505050505050565b610a6b610a26610e9a565b610aa65760405162461bcd60e51b815260040180806020018281038252603a815260200180611516603a913960400191505060405180910390fd5b6001600160a01b038116610aeb5760405162461bcd60e51b81526004018080602001828103825260218152602001806115506021913960400191505060405180910390fd5b306001600160a01b0316836001600160a01b0316636352211e846040518263ffffffff1660e01b81526004018082815260200191505060206040518083038186803b158015610b3957600080fd5b505afa158015610b4d573d6000803e3d6000fd5b505050506040513d6020811015610b6357600080fd5b50516001600160a01b031614610baa5760405162461bcd60e51b815260040180806020018281038252602a81526020018061143c602a913960400191505060405180910390fd5b604080516020810180835260008083529251635c46a7ef60e11b815230600482018181526001600160a01b03878116602485015260448401899052608060648501908152865160848601528651918b169763b88d4fde9794968a968c96959460a4909101928190849084905b83811015610c2e578181015183820152602001610c16565b50505050905090810190601f168015610c5b5780820380516001836020036101000a031916815260200191505b5095505050505050600060405180830381600087803b158015610c7d57600080fd5b505af1158015610c91573d6000803e3d6000fd5b50505050806001600160a01b031682846001600160a01b03167fc4201945555ec2e699bd6c3789603ab9ce5991abd7eb7e009d630009991835ff60405160405180910390a4505050565b610ce6610667610e9a565b610d215760405162461bcd60e51b81526004018080602001828103825260408152602001806114a96040913960400191505060405180910390fd5b6106b0816111cd565b6000306001600160a01b0316836001600160a01b0316636352211e846040518263ffffffff1660e01b81526004018082815260200191505060206040518083038186803b158015610d7a57600080fd5b505afa158015610d8e573d6000803e3d6000fd5b505050506040513d6020811015610da457600080fd5b50516001600160a01b0316149392505050565b6040805180820190915260058152640312e302e360dc1b602082015290565b6000610805818363ffffffff610f5516565b61081b610df3610e9a565b610f0d565b610e0061086c565b6001600160a01b0316336001600160a01b031614610e4f5760405162461bcd60e51b81526004018080602001828103825260248152602001806115716024913960400191505060405180910390fd5b610e9385858080601f0160208091040260200160405190810160405280939291908181526020018383808284376000920191909152508792508691508590506112cd565b5050505050565b6002546000906001600160a01b03163314610eb6575033610879565b610ebe6112d3565b9050610879565b610ed660018263ffffffff61132016565b6040516001600160a01b038216907fee1504a83b6d4a361f4c1dc78ab59bfa30d6a3b6612c403e86bb01ef2984295f90600090a250565b610f1e60018263ffffffff6113a116565b6040516001600160a01b038216907f270d9b30cf5b0793bbfd54c9d5b94aeb49462b8148399000265144a8722da6b690600090a250565b60006001600160a01b038216610f9c5760405162461bcd60e51b81526004018080602001828103825260228152602001806114876022913960400191505060405180910390fd5b506001600160a01b03166000908152602091909152604090205460ff1690565b610fcd60008263ffffffff6113a116565b6040516001600160a01b038216907f0a8eb35e5ca14b3d6f28e4abf2f128dbab231a58b56e89beb5d636115001e16590600090a250565b61101560008263ffffffff61132016565b6040516001600160a01b038216907f22380c05984257a1cb900161c713dd71d39e74820f1aea43bd3f1bdd2096129990600090a250565b50600090565b604080517f19457468657265756d205369676e6564204d6573736167653a0a333200000000602080830191909152603c8083019490945282518083039094018452605c909101909152815191012090565b600081516041146110b657506000610805565b60208201516040830151606084015160001a7f7fffffffffffffffffffffffffffffff5d576e7357a4501ddfe92f46681b20a08211156110fc5760009350505050610805565b8060ff16601b1415801561111457508060ff16601c14155b156111255760009350505050610805565b6040805160008152602080820180845289905260ff8416828401526060820186905260808201859052915160019260a0808401939192601f1981019281900390910190855afa15801561117c573d6000803e3d6000fd5b5050604051601f190151979650505050505050565b600060606111ad60405180602001604052806000815250611408565b915091509091565b604080516020810190915260008152600b9190910191565b6002546001600160a01b039081169082166112195760405162461bcd60e51b815260040180806020018281038252602e81526020018061140e602e913960400191505060405180910390fd5b806001600160a01b0316826001600160a01b0316141561126a5760405162461bcd60e51b815260040180806020018281038252602d8152602001806114e9602d913960400191505060405180910390fd5b816001600160a01b0316816001600160a01b03167fb9f84b8e65164b14439ae3620df0a4d8786d896996c0282b683f9d8c08f046e860405160405180910390a350600280546001600160a01b0319166001600160a01b0392909216919091179055565b50505050565b600060606000368080601f0160208091040260200160405190810160405280939291908181526020018383808284376000920191909152505050503601516001600160a01b031692915050565b61132a8282610f55565b1561137c576040805162461bcd60e51b815260206004820152601f60248201527f526f6c65733a206163636f756e7420616c72656164792068617320726f6c6500604482015290519081900360640190fd5b6001600160a01b0316600090815260209190915260409020805460ff19166001179055565b6113ab8282610f55565b6113e65760405162461bcd60e51b81526004018080602001828103825260218152602001806114666021913960400191505060405180910390fd5b6001600160a01b0316600090815260209190915260409020805460ff19169055565b60009156fe47534e526563697069656e743a206e65772052656c617948756220697320746865207a65726f2061646472657373556e61626c6520746f206d6f766520746f6b656e207768696368206973206e6f7720457363726f776564526f6c65733a206163636f756e7420646f6573206e6f74206861766520726f6c65526f6c65733a206163636f756e7420697320746865207a65726f206164647265737357686974656c69737441646d696e526f6c653a2063616c6c657220646f6573206e6f742068617665207468652057686974656c69737441646d696e20726f6c6547534e526563697069656e743a206e65772052656c6179487562206973207468652063757272656e74206f6e6557686974656c6973746564526f6c653a2063616c6c657220646f6573206e6f742068617665207468652057686974656c697374656420726f6c6543616e6e6f74206d6f766520746f6b656e20746f207a65726f206164647265737347534e526563697069656e743a2063616c6c6572206973206e6f742052656c6179487562a265627a7a723158206079e90f386bbe39fd937e5bb09df40e6ebdc5975d5edc2fe5763c41495d9e9164736f6c634300050e0032526f6c65733a206163636f756e7420697320746865207a65726f206164647265737357686974656c69737441646d696e526f6c653a2063616c6c657220646f6573206e6f742068617665207468652057686974656c69737441646d696e20726f6c65",
  "source": "pragma solidity ^0.5.14;\n\nimport \"../GSN/TokenLandiaWhitelistGSNRecipient.sol\";\nimport \"@openzeppelin/contracts/token/ERC721/IERC721.sol\";\nimport \"@openzeppelin/contracts/token/ERC721/IERC721Receiver.sol\";\n\ncontract TrustedNftEscrow is TokenLandiaWhitelistGSNRecipient, IERC721Receiver {\n\n    event OwnershipTransferred(\n        address indexed _nftAddress,\n        uint256 indexed _tokenId,\n        address indexed _recipient\n    );\n\n    event Received(\n        address operator,\n        address from,\n        uint256 tokenId,\n        bytes data,\n        uint256 gas\n    );\n\n    function onERC721Received(address operator, address from, uint256 tokenId, bytes memory data) public returns (bytes4) {\n        emit Received(operator, from, tokenId, data, gasleft());\n\n        return this.onERC721Received.selector;\n    }\n\n    function isTokenEscrowed(address _nftAddress, uint256 _tokenId) external view returns (bool) {\n        return IERC721(_nftAddress).ownerOf(_tokenId) == address(this);\n    }\n\n    function transferOwnership(address _nftAddress, uint256 _tokenId, address _recipient) onlyWhitelisted external {\n        require(_recipient != address(0x0), \"Cannot move token to zero address\");\n        require(IERC721(_nftAddress).ownerOf(_tokenId) == address(this), \"Unable to move token which is now Escrowed\");\n\n        IERC721(_nftAddress).safeTransferFrom(address(this), _recipient, _tokenId, bytes(\"\"));\n\n        emit OwnershipTransferred(_nftAddress, _tokenId, _recipient);\n    }\n\n}\n",
  "sourcePath": "/Users/Natalie/Projects/tokenlandia-contracts/contracts/escrow/TrustedNftEscrow.sol",
  "compiler": {
    "name": "solc",
    "version": "0.5.14+commit.01f1aaa4.Emscripten.clang"
  },
  "schemaVersion": "3.1.0",
  "updatedAt": "2020-06-09T14:39:06.069Z",
  "networkType": "ethereum",
  "devdoc": {
    "methods": {
      "acceptRelayedCall(address,address,bytes,uint256,uint256,uint256,uint256,bytes,uint256)": {
        "details": "Ensures that only transactions with a trusted signature can be relayed through the GSN."
      },
      "getHubAddr()": {
        "details": "Returns the address of the {IRelayHub} contract for this recipient."
      },
      "postRelayedCall(bytes,bool,uint256,bytes32)": {
        "details": "See `IRelayRecipient.postRelayedCall`.     * This function should not be overriden directly, use `_postRelayedCall` instead.     * * Requirements:     * - the caller must be the `RelayHub` contract."
      },
      "preRelayedCall(bytes)": {
        "details": "See `IRelayRecipient.preRelayedCall`.     * This function should not be overriden directly, use `_preRelayedCall` instead.     * * Requirements:     * - the caller must be the `RelayHub` contract."
      },
      "relayHubVersion()": {
        "details": "Returns the version string of the {IRelayHub} for which this recipient implementation was built. If {_upgradeRelayHub} is used, the new {IRelayHub} instance should be compatible with this version."
      }
    }
  },
  "userdoc": {
    "methods": {}
  }
}