{
  "contractName": "Tokenlandia",
  "abi": [
    {
      "inputs": [
        {
          "internalType": "string",
          "name": "_tokenBaseURI",
          "type": "string"
        }
      ],
      "payable": false,
      "stateMutability": "nonpayable",
      "type": "constructor"
    },
    {
      "anonymous": false,
      "inputs": [
        {
          "indexed": true,
          "internalType": "address",
          "name": "owner",
          "type": "address"
        },
        {
          "indexed": true,
          "internalType": "address",
          "name": "approved",
          "type": "address"
        },
        {
          "indexed": true,
          "internalType": "uint256",
          "name": "tokenId",
          "type": "uint256"
        }
      ],
      "name": "Approval",
      "type": "event"
    },
    {
      "anonymous": false,
      "inputs": [
        {
          "indexed": true,
          "internalType": "address",
          "name": "owner",
          "type": "address"
        },
        {
          "indexed": true,
          "internalType": "address",
          "name": "operator",
          "type": "address"
        },
        {
          "indexed": false,
          "internalType": "bool",
          "name": "approved",
          "type": "bool"
        }
      ],
      "name": "ApprovalForAll",
      "type": "event"
    },
    {
      "anonymous": false,
      "inputs": [
        {
          "indexed": true,
          "internalType": "address",
          "name": "oldRelayHub",
          "type": "address"
        },
        {
          "indexed": true,
          "internalType": "address",
          "name": "newRelayHub",
          "type": "address"
        }
      ],
      "name": "RelayHubChanged",
      "type": "event"
    },
    {
      "anonymous": false,
      "inputs": [
        {
          "indexed": true,
          "internalType": "address",
          "name": "from",
          "type": "address"
        },
        {
          "indexed": true,
          "internalType": "address",
          "name": "to",
          "type": "address"
        },
        {
          "indexed": true,
          "internalType": "uint256",
          "name": "tokenId",
          "type": "uint256"
        }
      ],
      "name": "Transfer",
      "type": "event"
    },
    {
      "anonymous": false,
      "inputs": [
        {
          "indexed": true,
          "internalType": "address",
          "name": "account",
          "type": "address"
        }
      ],
      "name": "WhitelistAdminAdded",
      "type": "event"
    },
    {
      "anonymous": false,
      "inputs": [
        {
          "indexed": true,
          "internalType": "address",
          "name": "account",
          "type": "address"
        }
      ],
      "name": "WhitelistAdminRemoved",
      "type": "event"
    },
    {
      "anonymous": false,
      "inputs": [
        {
          "indexed": true,
          "internalType": "address",
          "name": "account",
          "type": "address"
        }
      ],
      "name": "WhitelistedAdded",
      "type": "event"
    },
    {
      "anonymous": false,
      "inputs": [
        {
          "indexed": true,
          "internalType": "address",
          "name": "account",
          "type": "address"
        }
      ],
      "name": "WhitelistedRemoved",
      "type": "event"
    },
    {
      "constant": true,
      "inputs": [
        {
          "internalType": "address",
          "name": "relay",
          "type": "address"
        },
        {
          "internalType": "address",
          "name": "from",
          "type": "address"
        },
        {
          "internalType": "bytes",
          "name": "encodedFunction",
          "type": "bytes"
        },
        {
          "internalType": "uint256",
          "name": "transactionFee",
          "type": "uint256"
        },
        {
          "internalType": "uint256",
          "name": "gasPrice",
          "type": "uint256"
        },
        {
          "internalType": "uint256",
          "name": "gasLimit",
          "type": "uint256"
        },
        {
          "internalType": "uint256",
          "name": "nonce",
          "type": "uint256"
        },
        {
          "internalType": "bytes",
          "name": "approvalData",
          "type": "bytes"
        },
        {
          "internalType": "uint256",
          "name": "",
          "type": "uint256"
        }
      ],
      "name": "acceptRelayedCall",
      "outputs": [
        {
          "internalType": "uint256",
          "name": "",
          "type": "uint256"
        },
        {
          "internalType": "bytes",
          "name": "",
          "type": "bytes"
        }
      ],
      "payable": false,
      "stateMutability": "view",
      "type": "function"
    },
    {
      "constant": false,
      "inputs": [
        {
          "internalType": "address",
          "name": "account",
          "type": "address"
        }
      ],
      "name": "addWhitelistAdmin",
      "outputs": [],
      "payable": false,
      "stateMutability": "nonpayable",
      "type": "function"
    },
    {
      "constant": false,
      "inputs": [
        {
          "internalType": "address",
          "name": "account",
          "type": "address"
        }
      ],
      "name": "addWhitelisted",
      "outputs": [],
      "payable": false,
      "stateMutability": "nonpayable",
      "type": "function"
    },
    {
      "constant": false,
      "inputs": [
        {
          "internalType": "address",
          "name": "to",
          "type": "address"
        },
        {
          "internalType": "uint256",
          "name": "tokenId",
          "type": "uint256"
        }
      ],
      "name": "approve",
      "outputs": [],
      "payable": false,
      "stateMutability": "nonpayable",
      "type": "function"
    },
    {
      "constant": true,
      "inputs": [
        {
          "internalType": "address",
          "name": "owner",
          "type": "address"
        }
      ],
      "name": "balanceOf",
      "outputs": [
        {
          "internalType": "uint256",
          "name": "",
          "type": "uint256"
        }
      ],
      "payable": false,
      "stateMutability": "view",
      "type": "function"
    },
    {
      "constant": true,
      "inputs": [
        {
          "internalType": "uint256",
          "name": "tokenId",
          "type": "uint256"
        }
      ],
      "name": "getApproved",
      "outputs": [
        {
          "internalType": "address",
          "name": "",
          "type": "address"
        }
      ],
      "payable": false,
      "stateMutability": "view",
      "type": "function"
    },
    {
      "constant": true,
      "inputs": [],
      "name": "getHubAddr",
      "outputs": [
        {
          "internalType": "address",
          "name": "",
          "type": "address"
        }
      ],
      "payable": false,
      "stateMutability": "view",
      "type": "function"
    },
    {
      "constant": true,
      "inputs": [
        {
          "internalType": "address",
          "name": "owner",
          "type": "address"
        },
        {
          "internalType": "address",
          "name": "operator",
          "type": "address"
        }
      ],
      "name": "isApprovedForAll",
      "outputs": [
        {
          "internalType": "bool",
          "name": "",
          "type": "bool"
        }
      ],
      "payable": false,
      "stateMutability": "view",
      "type": "function"
    },
    {
      "constant": true,
      "inputs": [
        {
          "internalType": "address",
          "name": "account",
          "type": "address"
        }
      ],
      "name": "isWhitelistAdmin",
      "outputs": [
        {
          "internalType": "bool",
          "name": "",
          "type": "bool"
        }
      ],
      "payable": false,
      "stateMutability": "view",
      "type": "function"
    },
    {
      "constant": true,
      "inputs": [
        {
          "internalType": "address",
          "name": "account",
          "type": "address"
        }
      ],
      "name": "isWhitelisted",
      "outputs": [
        {
          "internalType": "bool",
          "name": "",
          "type": "bool"
        }
      ],
      "payable": false,
      "stateMutability": "view",
      "type": "function"
    },
    {
      "constant": true,
      "inputs": [],
      "name": "name",
      "outputs": [
        {
          "internalType": "string",
          "name": "",
          "type": "string"
        }
      ],
      "payable": false,
      "stateMutability": "view",
      "type": "function"
    },
    {
      "constant": true,
      "inputs": [
        {
          "internalType": "uint256",
          "name": "tokenId",
          "type": "uint256"
        }
      ],
      "name": "ownerOf",
      "outputs": [
        {
          "internalType": "address",
          "name": "",
          "type": "address"
        }
      ],
      "payable": false,
      "stateMutability": "view",
      "type": "function"
    },
    {
      "constant": false,
      "inputs": [
        {
          "internalType": "bytes",
          "name": "context",
          "type": "bytes"
        },
        {
          "internalType": "bool",
          "name": "success",
          "type": "bool"
        },
        {
          "internalType": "uint256",
          "name": "actualCharge",
          "type": "uint256"
        },
        {
          "internalType": "bytes32",
          "name": "preRetVal",
          "type": "bytes32"
        }
      ],
      "name": "postRelayedCall",
      "outputs": [],
      "payable": false,
      "stateMutability": "nonpayable",
      "type": "function"
    },
    {
      "constant": false,
      "inputs": [
        {
          "internalType": "bytes",
          "name": "context",
          "type": "bytes"
        }
      ],
      "name": "preRelayedCall",
      "outputs": [
        {
          "internalType": "bytes32",
          "name": "",
          "type": "bytes32"
        }
      ],
      "payable": false,
      "stateMutability": "nonpayable",
      "type": "function"
    },
    {
      "constant": true,
      "inputs": [],
      "name": "relayHubVersion",
      "outputs": [
        {
          "internalType": "string",
          "name": "",
          "type": "string"
        }
      ],
      "payable": false,
      "stateMutability": "view",
      "type": "function"
    },
    {
      "constant": false,
      "inputs": [
        {
          "internalType": "address",
          "name": "account",
          "type": "address"
        }
      ],
      "name": "removeWhitelisted",
      "outputs": [],
      "payable": false,
      "stateMutability": "nonpayable",
      "type": "function"
    },
    {
      "constant": false,
      "inputs": [],
      "name": "renounceWhitelistAdmin",
      "outputs": [],
      "payable": false,
      "stateMutability": "nonpayable",
      "type": "function"
    },
    {
      "constant": false,
      "inputs": [],
      "name": "renounceWhitelisted",
      "outputs": [],
      "payable": false,
      "stateMutability": "nonpayable",
      "type": "function"
    },
    {
      "constant": false,
      "inputs": [
        {
          "internalType": "address",
          "name": "from",
          "type": "address"
        },
        {
          "internalType": "address",
          "name": "to",
          "type": "address"
        },
        {
          "internalType": "uint256",
          "name": "tokenId",
          "type": "uint256"
        }
      ],
      "name": "safeTransferFrom",
      "outputs": [],
      "payable": false,
      "stateMutability": "nonpayable",
      "type": "function"
    },
    {
      "constant": false,
      "inputs": [
        {
          "internalType": "address",
          "name": "from",
          "type": "address"
        },
        {
          "internalType": "address",
          "name": "to",
          "type": "address"
        },
        {
          "internalType": "uint256",
          "name": "tokenId",
          "type": "uint256"
        },
        {
          "internalType": "bytes",
          "name": "_data",
          "type": "bytes"
        }
      ],
      "name": "safeTransferFrom",
      "outputs": [],
      "payable": false,
      "stateMutability": "nonpayable",
      "type": "function"
    },
    {
      "constant": false,
      "inputs": [
        {
          "internalType": "address",
          "name": "to",
          "type": "address"
        },
        {
          "internalType": "bool",
          "name": "approved",
          "type": "bool"
        }
      ],
      "name": "setApprovalForAll",
      "outputs": [],
      "payable": false,
      "stateMutability": "nonpayable",
      "type": "function"
    },
    {
      "constant": true,
      "inputs": [
        {
          "internalType": "bytes4",
          "name": "interfaceId",
          "type": "bytes4"
        }
      ],
      "name": "supportsInterface",
      "outputs": [
        {
          "internalType": "bool",
          "name": "",
          "type": "bool"
        }
      ],
      "payable": false,
      "stateMutability": "view",
      "type": "function"
    },
    {
      "constant": true,
      "inputs": [],
      "name": "symbol",
      "outputs": [
        {
          "internalType": "string",
          "name": "",
          "type": "string"
        }
      ],
      "payable": false,
      "stateMutability": "view",
      "type": "function"
    },
    {
      "constant": true,
      "inputs": [],
      "name": "tokenBaseURI",
      "outputs": [
        {
          "internalType": "string",
          "name": "",
          "type": "string"
        }
      ],
      "payable": false,
      "stateMutability": "view",
      "type": "function"
    },
    {
      "constant": true,
      "inputs": [
        {
          "internalType": "uint256",
          "name": "index",
          "type": "uint256"
        }
      ],
      "name": "tokenByIndex",
      "outputs": [
        {
          "internalType": "uint256",
          "name": "",
          "type": "uint256"
        }
      ],
      "payable": false,
      "stateMutability": "view",
      "type": "function"
    },
    {
      "constant": true,
      "inputs": [
        {
          "internalType": "address",
          "name": "owner",
          "type": "address"
        },
        {
          "internalType": "uint256",
          "name": "index",
          "type": "uint256"
        }
      ],
      "name": "tokenOfOwnerByIndex",
      "outputs": [
        {
          "internalType": "uint256",
          "name": "",
          "type": "uint256"
        }
      ],
      "payable": false,
      "stateMutability": "view",
      "type": "function"
    },
    {
      "constant": true,
      "inputs": [],
      "name": "totalSupply",
      "outputs": [
        {
          "internalType": "uint256",
          "name": "",
          "type": "uint256"
        }
      ],
      "payable": false,
      "stateMutability": "view",
      "type": "function"
    },
    {
      "constant": false,
      "inputs": [
        {
          "internalType": "address",
          "name": "from",
          "type": "address"
        },
        {
          "internalType": "address",
          "name": "to",
          "type": "address"
        },
        {
          "internalType": "uint256",
          "name": "tokenId",
          "type": "uint256"
        }
      ],
      "name": "transferFrom",
      "outputs": [],
      "payable": false,
      "stateMutability": "nonpayable",
      "type": "function"
    },
    {
      "constant": false,
      "inputs": [
        {
          "internalType": "address",
          "name": "newRelayHub",
          "type": "address"
        }
      ],
      "name": "upgradeRelayHub",
      "outputs": [],
      "payable": false,
      "stateMutability": "nonpayable",
      "type": "function"
    },
    {
      "constant": false,
      "inputs": [
        {
          "internalType": "uint256",
          "name": "_tokenId",
          "type": "uint256"
        },
        {
          "internalType": "address",
          "name": "_recipient",
          "type": "address"
        },
        {
          "internalType": "string",
          "name": "_productCode",
          "type": "string"
        },
        {
          "internalType": "string",
          "name": "_ipfsHash",
          "type": "string"
        }
      ],
      "name": "mintToken",
      "outputs": [
        {
          "internalType": "bool",
          "name": "success",
          "type": "bool"
        }
      ],
      "payable": false,
      "stateMutability": "nonpayable",
      "type": "function"
    },
    {
      "constant": true,
      "inputs": [
        {
          "internalType": "string",
          "name": "productId",
          "type": "string"
        }
      ],
      "name": "ipfsUrlForProductId",
      "outputs": [
        {
          "internalType": "string",
          "name": "_ipfsUrl",
          "type": "string"
        }
      ],
      "payable": false,
      "stateMutability": "view",
      "type": "function"
    },
    {
      "constant": true,
      "inputs": [
        {
          "internalType": "uint256",
          "name": "_tokenId",
          "type": "uint256"
        }
      ],
      "name": "attributes",
      "outputs": [
        {
          "internalType": "string",
          "name": "_productCode",
          "type": "string"
        },
        {
          "internalType": "string",
          "name": "_productId",
          "type": "string"
        },
        {
          "internalType": "string",
          "name": "_ipfsUrl",
          "type": "string"
        }
      ],
      "payable": false,
      "stateMutability": "view",
      "type": "function"
    },
    {
      "constant": true,
      "inputs": [
        {
          "internalType": "uint256",
          "name": "_tokenId",
          "type": "uint256"
        }
      ],
      "name": "productCode",
      "outputs": [
        {
          "internalType": "string",
          "name": "_productCode",
          "type": "string"
        }
      ],
      "payable": false,
      "stateMutability": "view",
      "type": "function"
    },
    {
      "constant": true,
      "inputs": [
        {
          "internalType": "uint256",
          "name": "_tokenId",
          "type": "uint256"
        }
      ],
      "name": "productId",
      "outputs": [
        {
          "internalType": "string",
          "name": "_productId",
          "type": "string"
        }
      ],
      "payable": false,
      "stateMutability": "view",
      "type": "function"
    },
    {
      "constant": true,
      "inputs": [
        {
          "internalType": "string",
          "name": "_productId",
          "type": "string"
        }
      ],
      "name": "tokenIdForProductId",
      "outputs": [
        {
          "internalType": "uint256",
          "name": "_tokenId",
          "type": "uint256"
        }
      ],
      "payable": false,
      "stateMutability": "view",
      "type": "function"
    },
    {
      "constant": true,
      "inputs": [
        {
          "internalType": "uint256",
          "name": "_tokenId",
          "type": "uint256"
        }
      ],
      "name": "tokenURI",
      "outputs": [
        {
          "internalType": "string",
          "name": "",
          "type": "string"
        }
      ],
      "payable": false,
      "stateMutability": "view",
      "type": "function"
    },
    {
      "constant": true,
      "inputs": [
        {
          "internalType": "address",
          "name": "owner",
          "type": "address"
        }
      ],
      "name": "tokensOfOwner",
      "outputs": [
        {
          "internalType": "uint256[]",
          "name": "",
          "type": "uint256[]"
        }
      ],
      "payable": false,
      "stateMutability": "view",
      "type": "function"
    },
    {
      "constant": false,
      "inputs": [
        {
          "internalType": "uint256",
          "name": "_tokenId",
          "type": "uint256"
        },
        {
          "internalType": "string",
          "name": "_productCode",
          "type": "string"
        }
      ],
      "name": "updateProductCode",
      "outputs": [],
      "payable": false,
      "stateMutability": "nonpayable",
      "type": "function"
    },
    {
      "constant": false,
      "inputs": [
        {
          "internalType": "uint256",
          "name": "_tokenId",
          "type": "uint256"
        },
        {
          "internalType": "string",
          "name": "_newIpfsHash",
          "type": "string"
        }
      ],
      "name": "updateIpfsHash",
      "outputs": [],
      "payable": false,
      "stateMutability": "nonpayable",
      "type": "function"
    },
    {
      "constant": false,
      "inputs": [
        {
          "internalType": "string",
          "name": "_newBaseURI",
          "type": "string"
        }
      ],
      "name": "updateTokenBaseURI",
      "outputs": [],
      "payable": false,
      "stateMutability": "nonpayable",
      "type": "function"
    },
    {
      "constant": false,
      "inputs": [
        {
          "internalType": "uint256",
          "name": "_tokenId",
          "type": "uint256"
        }
      ],
      "name": "burn",
      "outputs": [],
      "payable": false,
      "stateMutability": "nonpayable",
      "type": "function"
    }
  ],
  "bytecode": "0x600d80546001600160a01b03191673d216153c06e857cd7f72665e0af1d7d82172f49417905560a06040819052600060808190526200004191600e91620005b0565b503480156200004f57600080fd5b50604051620044da380380620044da833981810160405260208110156200007557600080fd5b81019080805160405193929190846401000000008211156200009657600080fd5b908301906020820185811115620000ac57600080fd5b8251640100000000811182820188101715620000c757600080fd5b82525081516020918201929091019080838360005b83811015620000f6578181015183820152602001620000dc565b50505050905090810190601f168015620001245780820380516001836020036101000a031916815260200191505b5060408181018152600f82526e151bdad95b93185b991a5848139195608a1b602080840191909152815180830190925260038252622a262760e91b90820152909350915082905081620001876301ffc9a760e01b6001600160e01b036200027016565b620001a26380ac58cd60e01b6001600160e01b036200027016565b620001bd63780e9d6360e01b6001600160e01b036200027016565b8151620001d2906009906020850190620005b0565b508051620001e890600a906020840190620005b0565b5062000204635b5e139f60e01b6001600160e01b036200027016565b505050506200022b6200021c620002f560201b60201c565b6001600160e01b036200032c16565b62000253620002426001600160e01b03620002f516565b6200037e60201b620010aa1760201c565b80516200026890600e906020840190620005b0565b505062000652565b6001600160e01b03198082161415620002d0576040805162461bcd60e51b815260206004820152601c60248201527f4552433136353a20696e76616c696420696e7465726661636520696400000000604482015290519081900360640190fd5b6001600160e01b0319166000908152602081905260409020805460ff19166001179055565b600d546000906001600160a01b031633146200031357503362000329565b620003266001600160e01b03620003f816565b90505b90565b6200034781600b6200044560201b6200301c1790919060201c565b6040516001600160a01b038216907f22380c05984257a1cb900161c713dd71d39e74820f1aea43bd3f1bdd2096129990600090a250565b620003a4620003956001600160e01b03620002f516565b6001600160e01b03620004d216565b620003e15760405162461bcd60e51b81526004018080602001828103825260408152602001806200449a6040913960400191505060405180910390fd5b620003f5816001600160e01b03620004f516565b50565b600060606000368080601f0160208091040260200160405190810160405280939291908181526020018383808284376000920191909152505050503601516001600160a01b031692915050565b6200045a82826001600160e01b036200054716565b15620004ad576040805162461bcd60e51b815260206004820152601f60248201527f526f6c65733a206163636f756e7420616c72656164792068617320726f6c6500604482015290519081900360640190fd5b6001600160a01b0316600090815260209190915260409020805460ff19166001179055565b6000620004ef82600b6200054760201b62002af01790919060201c565b92915050565b6200051081600c6200044560201b6200301c1790919060201c565b6040516001600160a01b038216907fee1504a83b6d4a361f4c1dc78ab59bfa30d6a3b6612c403e86bb01ef2984295f90600090a250565b60006001600160a01b038216620005905760405162461bcd60e51b8152600401808060200182810382526022815260200180620044786022913960400191505060405180910390fd5b506001600160a01b03166000908152602091909152604090205460ff1690565b828054600181600116156101000203166002900490600052602060002090601f016020900481019282601f10620005f357805160ff191683800117855562000623565b8280016001018555821562000623579182015b828111156200062357825182559160200191906001019062000606565b506200063192915062000635565b5090565b6200032991905b808211156200063157600081556001016200063c565b613e1680620006626000396000f3fe608060405234801561001057600080fd5b50600436106102535760003560e01c806374e861d611610146578063ad61ccd5116100c3578063d6cd947311610087578063d6cd947314610c63578063d940a7ea14610c6b578063e06e0e2214610cd9578063e985e9c514610d55578063ead25d1514610d83578063f1e95a3514610df157610253565b8063ad61ccd5146109f3578063b88d4fde146109fb578063bb5f747b14610abf578063c87b56dd14610ae5578063d05dcc6a14610b0257610253565b80638ed2be821161010a5780638ed2be821461090557806395d89b41146109225780639611c0511461092a5780639e30a5901461099f578063a22cb465146109c557610253565b806374e861d61461068f57806380274db71461069757806383947ea0146107055780638462151c146108725780638b174b1b146108e857610253565b80633af32abf116101d45780634f6ccce7116101985780634f6ccce7146105365780636289fa61146105535780636352211e1461062657806370a08231146106435780637362d9c81461066957610253565b80633af32abf146104ad57806342842e0e146104d357806342966c68146105095780634c5a628c146105265780634e99b8001461052e57610253565b806318160ddd1161021b57806318160ddd1461039d5780632295ee5b146103b757806323b872dd14610425578063291d95491461045b5780632f745c591461048157610253565b806301ffc9a71461025857806306fdde0314610293578063081812fc14610310578063095ea7b31461034957806310154bad14610377575b600080fd5b61027f6004803603602081101561026e57600080fd5b50356001600160e01b031916610e66565b604080519115158252519081900360200190f35b61029b610e89565b6040805160208082528351818301528351919283929083019185019080838360005b838110156102d55781810151838201526020016102bd565b50505050905090810190601f1680156103025780820380516001836020036101000a031916815260200191505b509250505060405180910390f35b61032d6004803603602081101561032657600080fd5b5035610f20565b604080516001600160a01b039092168252519081900360200190f35b6103756004803603604081101561035f57600080fd5b506001600160a01b038135169060200135610f82565b005b6103756004803603602081101561038d57600080fd5b50356001600160a01b03166110aa565b6103a5611101565b60408051918252519081900360200190f35b610375600480360360208110156103cd57600080fd5b810190602081018135600160201b8111156103e757600080fd5b8201836020820111156103f957600080fd5b803590602001918460018302840111600160201b8311171561041a57600080fd5b509092509050611107565b6103756004803603606081101561043b57600080fd5b506001600160a01b038135811691602081013590911690604001356111a3565b6103756004803603602081101561047157600080fd5b50356001600160a01b03166111fa565b6103a56004803603604081101561049757600080fd5b506001600160a01b038135169060200135611249565b61027f600480360360208110156104c357600080fd5b50356001600160a01b03166112c9565b610375600480360360608110156104e957600080fd5b506001600160a01b038135811691602081013590911690604001356112dc565b6103756004803603602081101561051f57600080fd5b50356112f7565b6103756114dd565b61029b6114ef565b6103a56004803603602081101561054c57600080fd5b503561157d565b61027f6004803603608081101561056957600080fd5b8135916001600160a01b0360208201351691810190606081016040820135600160201b81111561059857600080fd5b8201836020820111156105aa57600080fd5b803590602001918460018302840111600160201b831117156105cb57600080fd5b919390929091602081019035600160201b8111156105e857600080fd5b8201836020820111156105fa57600080fd5b803590602001918460018302840111600160201b8311171561061b57600080fd5b5090925090506115e3565b61032d6004803603602081101561063c57600080fd5b503561187b565b6103a56004803603602081101561065957600080fd5b50356001600160a01b03166118cf565b6103756004803603602081101561067f57600080fd5b50356001600160a01b0316611937565b61032d611986565b6103a5600480360360208110156106ad57600080fd5b810190602081018135600160201b8111156106c757600080fd5b8201836020820111156106d957600080fd5b803590602001918460018302840111600160201b831117156106fa57600080fd5b509092509050611995565b6107f3600480360361012081101561071c57600080fd5b6001600160a01b038235811692602081013590911691810190606081016040820135600160201b81111561074f57600080fd5b82018360208201111561076157600080fd5b803590602001918460018302840111600160201b8311171561078257600080fd5b9193909282359260208101359260408201359260608301359260a081019060800135600160201b8111156107b557600080fd5b8201836020820111156107c757600080fd5b803590602001918460018302840111600160201b831117156107e857600080fd5b919350915035611a34565b6040518083815260200180602001828103825283818151815260200191508051906020019080838360005b8381101561083657818101518382015260200161081e565b50505050905090810190601f1680156108635780820380516001836020036101000a031916815260200191505b50935050505060405180910390f35b6108986004803603602081101561088857600080fd5b50356001600160a01b0316611b74565b60408051602080825283518183015283519192839290830191858101910280838360005b838110156108d45781810151838201526020016108bc565b505050509050019250505060405180910390f35b61029b600480360360208110156108fe57600080fd5b5035611bd5565b61029b6004803603602081101561091b57600080fd5b5035611d14565b61029b611e0b565b6103756004803603604081101561094057600080fd5b81359190810190604081016020820135600160201b81111561096157600080fd5b82018360208201111561097357600080fd5b803590602001918460018302840111600160201b8311171561099457600080fd5b509092509050611e6c565b610375600480360360208110156109b557600080fd5b50356001600160a01b0316611f6f565b610375600480360360408110156109db57600080fd5b506001600160a01b0381351690602001351515611fbe565b61029b6120c3565b61037560048036036080811015610a1157600080fd5b6001600160a01b03823581169260208101359091169160408201359190810190608081016060820135600160201b811115610a4b57600080fd5b820183602082011115610a5d57600080fd5b803590602001918460018302840111600160201b83111715610a7e57600080fd5b91908080601f0160208091040260200160405190810160405280939291908181526020018383808284376000920191909152509295506120e2945050505050565b61027f60048036036020811015610ad557600080fd5b50356001600160a01b0316612140565b61029b60048036036020811015610afb57600080fd5b5035612153565b610b1f60048036036020811015610b1857600080fd5b5035612290565b60405180806020018060200180602001848103845287818151815260200191508051906020019080838360005b83811015610b64578181015183820152602001610b4c565b50505050905090810190601f168015610b915780820380516001836020036101000a031916815260200191505b50848103835286518152865160209182019188019080838360005b83811015610bc4578181015183820152602001610bac565b50505050905090810190601f168015610bf15780820380516001836020036101000a031916815260200191505b50848103825285518152855160209182019187019080838360005b83811015610c24578181015183820152602001610c0c565b50505050905090810190601f168015610c515780820380516001836020036101000a031916815260200191505b50965050505050505060405180910390f35b610375612534565b61029b60048036036020811015610c8157600080fd5b810190602081018135600160201b811115610c9b57600080fd5b820183602082011115610cad57600080fd5b803590602001918460018302840111600160201b83111715610cce57600080fd5b509092509050612544565b61037560048036036080811015610cef57600080fd5b810190602081018135600160201b811115610d0957600080fd5b820183602082011115610d1b57600080fd5b803590602001918460018302840111600160201b83111715610d3c57600080fd5b91935091508035151590602081013590604001356126b8565b61027f60048036036040811015610d6b57600080fd5b506001600160a01b0381358116916020013516612753565b6103a560048036036020811015610d9957600080fd5b810190602081018135600160201b811115610db357600080fd5b820183602082011115610dc557600080fd5b803590602001918460018302840111600160201b83111715610de657600080fd5b509092509050612781565b61037560048036036040811015610e0757600080fd5b81359190810190604081016020820135600160201b811115610e2857600080fd5b820183602082011115610e3a57600080fd5b803590602001918460018302840111600160201b83111715610e5b57600080fd5b5090925090506127b2565b6001600160e01b0319811660009081526020819052604090205460ff165b919050565b60098054604080516020601f6002600019610100600188161502019095169490940493840181900481028201810190925282815260609390929091830182828015610f155780601f10610eea57610100808354040283529160200191610f15565b820191906000526020600020905b815481529060010190602001808311610ef857829003601f168201915b505050505090505b90565b6000610f2b82612955565b610f665760405162461bcd60e51b815260040180806020018281038252602c815260200180613bfd602c913960400191505060405180910390fd5b506000908152600260205260409020546001600160a01b031690565b6000610f8d8261187b565b9050806001600160a01b0316836001600160a01b03161415610fe05760405162461bcd60e51b8152600401808060200182810382526021815260200180613d1b6021913960400191505060405180910390fd5b806001600160a01b0316610ff2612972565b6001600160a01b0316148061101357506110138161100e612972565b612753565b61104e5760405162461bcd60e51b8152600401808060200182810382526038815260200180613b236038913960400191505060405180910390fd5b60008281526002602052604080822080546001600160a01b0319166001600160a01b0387811691821790925591518593918516917f8c5be1e5ebec7d5bd14f71427d1e84f3dd0314c0f7b2291e5b200ac8c7c3b92591a4505050565b6110ba6110b5612972565b612140565b6110f55760405162461bcd60e51b8152600401808060200182810382526040815260200180613c746040913960400191505060405180910390fd5b6110fe8161299d565b50565b60075490565b6111126110b5612972565b61114d5760405162461bcd60e51b8152600401808060200182810382526040815260200180613c746040913960400191505060405180910390fd5b80611192576040805162461bcd60e51b815260206004820152601060248201526f10985cd948155492481a5b9d985b1a5960821b604482015290519081900360640190fd5b61119e600e838361394f565b505050565b6111b46111ae612972565b826129e5565b6111ef5760405162461bcd60e51b8152600401808060200182810382526031815260200180613d606031913960400191505060405180910390fd5b61119e838383612a89565b6112056110b5612972565b6112405760405162461bcd60e51b8152600401808060200182810382526040815260200180613c746040913960400191505060405180910390fd5b6110fe81612aa8565b6000611254836118cf565b82106112915760405162461bcd60e51b815260040180806020018281038252602b815260200180613a76602b913960400191505060405180910390fd5b6001600160a01b03831660009081526005602052604090208054839081106112b557fe5b906000526020600020015490505b92915050565b60006112c3600c8363ffffffff612af016565b61119e838383604051806020016040528060008152506120e2565b6113026110b5612972565b61133d5760405162461bcd60e51b8152600401808060200182810382526040815260200180613c746040913960400191505060405180910390fd5b8061134781612955565b61138d576040805162461bcd60e51b8152602060048201526012602482015271151bdad95b881251081b9bdd081d985b1a5960721b604482015290519081900360640190fd5b6000828152600f602052604090206010816113a785612b57565b60405160200180838054600181600116156101000203166002900480156114055780601f106113e3576101008083540402835291820191611405565b820191906000526020600020905b8154815290600101906020018083116113f1575b505080602d60f81b81525060010182805190602001908083835b6020831061143e5780518252601f19909201916020918201910161141f565b6001836020036101000a038019825116818451168082178552505050505050905001925050506040516020818303038152906040526040518082805190602001908083835b602083106114a25780518252601f199092019160209182019101611483565b51815160209384036101000a60001901801990921691161790529201948552506040519384900301909220600090555061119e905083612c1b565b6114ed6114e8612972565b612c2d565b565b600e805460408051602060026001851615610100026000190190941693909304601f810184900484028201840190925281815292918301828280156115755780601f1061154a57610100808354040283529160200191611575565b820191906000526020600020905b81548152906001019060200180831161155857829003601f168201915b505050505081565b6000611587611101565b82106115c45760405162461bcd60e51b815260040180806020018281038252602c815260200180613d91602c913960400191505060405180910390fd5b600782815481106115d157fe5b90600052602060002001549050919050565b60006115f56115f0612972565b6112c9565b6116305760405162461bcd60e51b815260040180806020018281038252603a815260200180613ce1603a913960400191505060405180910390fd5b83611679576040805162461bcd60e51b8152602060048201526014602482015273141c9bd91d58dd0818dbd919481a5b9d985b1a5960621b604482015290519081900360640190fd5b816116bf576040805162461bcd60e51b815260206004820152601160248201527012541194c81a185cda081a5b9d985b1a59607a1b604482015290519081900360640190fd5b6040805160606020601f88018190040282018101835291810186815290918291908890889081908501838280828437600092019190915250505090825250604080516020601f8701819004810282018101909252858152918101919086908690819084018382808284376000920182905250939094525050898152600f602090815260409091208351805191935061175b9284929101906139cd565b50602082810151805161177492600185019201906139cd565b509050506117828688612c75565b86601086866117908b612b57565b60405160200180848480828437602d60f81b920191825250825160019091019060208401908083835b602083106117d85780518252601f1990920191602091820191016117b9565b6001836020036101000a03801982511681845116808217855250505050505090500193505050506040516020818303038152906040526040518082805190602001908083835b6020831061183d5780518252601f19909201916020918201910161181e565b51815160209384036101000a600019018019909216911617905292019485525060405193849003019092209290925550600198975050505050505050565b6000818152600160205260408120546001600160a01b0316806112c35760405162461bcd60e51b8152600401808060200182810382526029815260200180613bb36029913960400191505060405180910390fd5b60006001600160a01b0382166119165760405162461bcd60e51b815260040180806020018281038252602a815260200180613b89602a913960400191505060405180910390fd5b6001600160a01b03821660009081526003602052604090206112c390612c96565b6119426110b5612972565b61197d5760405162461bcd60e51b8152600401808060200182810382526040815260200180613c746040913960400191505060405180910390fd5b6110fe81612c9a565b600d546001600160a01b031690565b600061199f611986565b6001600160a01b0316336001600160a01b0316146119ee5760405162461bcd60e51b8152600401808060200182810382526024815260200180613d3c6024913960400191505060405180910390fd5b611a2d83838080601f016020809104026020016040519081016040528093929190818152602001838380828437600092019190915250612ce292505050565b9392505050565b60006060808d8d8d8d8d8d8d8d611a49611986565b30604051602001808b6001600160a01b03166001600160a01b031660601b81526014018a6001600160a01b03166001600160a01b031660601b81526014018989808284379190910197885250506020808701959095526040808701949094526060808701939093526bffffffffffffffffffffffff1991831b8216608087015290911b1660948401528051608881850301815260c8601f8e018490049093028401830190915260a883018c815290975060009650611b3f95506115f0945092508b918b918291018382808284376000920191909152505086516020880120611b3392509050612ce8565b9063ffffffff612d3916565b90508015611b5a57611b4f612e27565b935093505050611b64565b611b4f6000612e4b565b9b509b9950505050505050505050565b6060611b7f82612e63565b805480602002602001604051908101604052809291908181526020018280548015611bc957602002820191906000526020600020905b815481526020019060010190808311611bb5575b50505050509050919050565b606081611be181612955565b611c27576040805162461bcd60e51b8152602060048201526012602482015271151bdad95b881251081b9bdd081d985b1a5960721b604482015290519081900360640190fd5b6000838152600f6020526040902080611c3f85612b57565b6040516020018083805460018160011615610100020316600290048015611c9d5780601f10611c7b576101008083540402835291820191611c9d565b820191906000526020600020905b815481529060010190602001808311611c89575b505080602d60f81b81525060010182805190602001908083835b60208310611cd65780518252601f199092019160209182019101611cb7565b6001836020036101000a0380198251168184511680821785525050505050509050019250505060405160208183030381529060405292505050919050565b606081611d2081612955565b611d66576040805162461bcd60e51b8152602060048201526012602482015271151bdad95b881251081b9bdd081d985b1a5960721b604482015290519081900360640190fd5b6000838152600f602090815260409182902080548351601f60026000196101006001861615020190931692909204918201849004840281018401909452808452909291839190830182828015611dfd5780601f10611dd257610100808354040283529160200191611dfd565b820191906000526020600020905b815481529060010190602001808311611de057829003601f168201915b505050505092505050919050565b600a8054604080516020601f6002600019610100600188161502019095169490940493840181900481028201810190925282815260609390929091830182828015610f155780601f10610eea57610100808354040283529160200191610f15565b611e776115f0612972565b611eb25760405162461bcd60e51b815260040180806020018281038252603a815260200180613ce1603a913960400191505060405180910390fd5b82611ebc81612955565b611f02576040805162461bcd60e51b8152602060048201526012602482015271151bdad95b881251081b9bdd081d985b1a5960721b604482015290519081900360640190fd5b81611f4c576040805162461bcd60e51b815260206004820152601560248201527413995dc812541194c81a185cda081a5b9d985b1a59605a1b604482015290519081900360640190fd5b6000848152600f60205260409020611f6890600101848461394f565b5050505050565b611f7a6110b5612972565b611fb55760405162461bcd60e51b8152600401808060200182810382526040815260200180613c746040913960400191505060405180910390fd5b6110fe81612e7d565b611fc6612972565b6001600160a01b0316826001600160a01b0316141561202c576040805162461bcd60e51b815260206004820152601960248201527f4552433732313a20617070726f766520746f2063616c6c657200000000000000604482015290519081900360640190fd5b8060046000612039612972565b6001600160a01b03908116825260208083019390935260409182016000908120918716808252919093529120805460ff19169215159290921790915561207d612972565b60408051841515815290516001600160a01b0392909216917f17307eab39ab6107e8899845ad3d59bd9653f200f220920489ca2b5937696c319181900360200190a35050565b6040805180820190915260058152640312e302e360dc1b602082015290565b6120f36120ed612972565b836129e5565b61212e5760405162461bcd60e51b8152600401808060200182810382526031815260200180613d606031913960400191505060405180910390fd5b61213a84848484612f7d565b50505050565b60006112c3600b8363ffffffff612af016565b60608161215f81612955565b6121a5576040805162461bcd60e51b8152602060048201526012602482015271151bdad95b881251081b9bdd081d985b1a5960721b604482015290519081900360640190fd5b600e600f6000858152602001908152602001600020600101604051602001808380546001816001161561010002031660029004801561221b5780601f106121f957610100808354040283529182019161221b565b820191906000526020600020905b815481529060010190602001808311612207575b5050828054600181600116156101000203166002900480156122745780601f10612252576101008083540402835291820191612274565b820191906000526020600020905b815481529060010190602001808311612260575b505060408051601f198184030181529190529695505050505050565b60608060608361229f81612955565b6122e5576040805162461bcd60e51b8152602060048201526012602482015271151bdad95b881251081b9bdd081d985b1a5960721b604482015290519081900360640190fd5b6000858152600f6020526040902080806122fe88612b57565b604051602001808380546001816001161561010002031660029004801561235c5780601f1061233a57610100808354040283529182019161235c565b820191906000526020600020905b815481529060010190602001808311612348575b505080602d60f81b81525060010182805190602001908083835b602083106123955780518252601f199092019160209182019101612376565b6001836020036101000a03801982511681845116808217855250505050505090500192505050604051602081830303815290604052600e83600101604051602001808380546001816001161561010002031660029004801561242e5780601f1061240c57610100808354040283529182019161242e565b820191906000526020600020905b81548152906001019060200180831161241a575b5050828054600181600116156101000203166002900480156124875780601f10612465576101008083540402835291820191612487565b820191906000526020600020905b815481529060010190602001808311612473575b505060408051601f1981840301815287546020601f6002600019610100600186161502019093169290920491820181900481028501810190935280845290955091935086925083018282801561251e5780601f106124f35761010080835404028352916020019161251e565b820191906000526020600020905b81548152906001019060200180831161250157829003601f168201915b5050505050925094509450945050509193909250565b6114ed61253f612972565b612aa8565b6060600060108484604051808383808284378083019250505092505050908152602001604051809103902054905061257b81612955565b6125cc576040805162461bcd60e51b815260206004820152601e60248201527f546f6b656e206e6f7420666f756e6420666f722070726f647563742049440000604482015290519081900360640190fd5b600e600f600083815260200190815260200160002060010160405160200180838054600181600116156101000203166002900480156126425780601f10612620576101008083540402835291820191612642565b820191906000526020600020905b81548152906001019060200180831161262e575b50508280546001816001161561010002031660029004801561269b5780601f1061267957610100808354040283529182019161269b565b820191906000526020600020905b815481529060010190602001808311612687575b505060408051601f19818403018152919052979650505050505050565b6126c0611986565b6001600160a01b0316336001600160a01b03161461270f5760405162461bcd60e51b8152600401808060200182810382526024815260200180613d3c6024913960400191505060405180910390fd5b611f6885858080601f01602080910402602001604051908101604052809392919081815260200183838082843760009201919091525087925086915085905061213a565b6001600160a01b03918216600090815260046020908152604080832093909416825291909152205460ff1690565b6000601083836040518083838082843791909101948552505060405192839003602001909220549250505092915050565b6127bd6115f0612972565b6127f85760405162461bcd60e51b815260040180806020018281038252603a815260200180613ce1603a913960400191505060405180910390fd5b8261280281612955565b612848576040805162461bcd60e51b8152602060048201526012602482015271151bdad95b881251081b9bdd081d985b1a5960721b604482015290519081900360640190fd5b6000848152600f6020526040902061286181858561394f565b50846010858561287089612b57565b60405160200180848480828437602d60f81b920191825250825160019091019060208401908083835b602083106128b85780518252601f199092019160209182019101612899565b6001836020036101000a03801982511681845116808217855250505050505090500193505050506040516020818303038152906040526040518082805190602001908083835b6020831061291d5780518252601f1990920191602091820191016128fe565b51815160209384036101000a600019018019909216911617905292019485525060405193849003019092209290925550505050505050565b6000908152600160205260409020546001600160a01b0316151590565b600d546000906001600160a01b0316331461298e575033610f1d565b612996612fcf565b9050610f1d565b6129ae600c8263ffffffff61301c16565b6040516001600160a01b038216907fee1504a83b6d4a361f4c1dc78ab59bfa30d6a3b6612c403e86bb01ef2984295f90600090a250565b60006129f082612955565b612a2b5760405162461bcd60e51b815260040180806020018281038252602c815260200180613af7602c913960400191505060405180910390fd5b6000612a368361187b565b9050806001600160a01b0316846001600160a01b03161480612a715750836001600160a01b0316612a6684610f20565b6001600160a01b0316145b80612a815750612a818185612753565b949350505050565b612a9483838361309d565b612a9e83826131e1565b61119e82826132cf565b612ab9600c8263ffffffff61330d16565b6040516001600160a01b038216907f270d9b30cf5b0793bbfd54c9d5b94aeb49462b8148399000265144a8722da6b690600090a250565b60006001600160a01b038216612b375760405162461bcd60e51b8152600401808060200182810382526022815260200180613c296022913960400191505060405180910390fd5b506001600160a01b03166000908152602091909152604090205460ff1690565b606081612b7c57506040805180820190915260018152600360fc1b6020820152610e84565b8160005b8115612b9457600101600a82049150612b80565b6060816040519080825280601f01601f191660200182016040528015612bc1576020820181803883390190505b50859350905060001982015b8315612c1257600a840660300160f81b82828060019003935081518110612bf057fe5b60200101906001600160f81b031916908160001a905350600a84049350612bcd565b50949350505050565b6110fe612c278261187b565b82613374565b612c3e600b8263ffffffff61330d16565b6040516001600160a01b038216907f0a8eb35e5ca14b3d6f28e4abf2f128dbab231a58b56e89beb5d636115001e16590600090a250565b612c7f82826133a0565b612c8982826132cf565b612c92816134d1565b5050565b5490565b612cab600b8263ffffffff61301c16565b6040516001600160a01b038216907f22380c05984257a1cb900161c713dd71d39e74820f1aea43bd3f1bdd2096129990600090a250565b50600090565b604080517f19457468657265756d205369676e6564204d6573736167653a0a333200000000602080830191909152603c8083019490945282518083039094018452605c909101909152815191012090565b60008151604114612d4c575060006112c3565b60208201516040830151606084015160001a7f7fffffffffffffffffffffffffffffff5d576e7357a4501ddfe92f46681b20a0821115612d9257600093505050506112c3565b8060ff16601b14158015612daa57508060ff16601c14155b15612dbb57600093505050506112c3565b6040805160008152602080820180845289905260ff8416828401526060820186905260808201859052915160019260a0808401939192601f1981019281900390910190855afa158015612e12573d6000803e3d6000fd5b5050604051601f190151979650505050505050565b60006060612e4360405180602001604052806000815250613515565b915091509091565b604080516020810190915260008152600b9190910191565b6001600160a01b0316600090815260056020526040902090565b600d546001600160a01b03908116908216612ec95760405162461bcd60e51b815260040180806020018281038252602e815260200180613b5b602e913960400191505060405180910390fd5b806001600160a01b0316826001600160a01b03161415612f1a5760405162461bcd60e51b815260040180806020018281038252602d815260200180613cb4602d913960400191505060405180910390fd5b816001600160a01b0316816001600160a01b03167fb9f84b8e65164b14439ae3620df0a4d8786d896996c0282b683f9d8c08f046e860405160405180910390a350600d80546001600160a01b0319166001600160a01b0392909216919091179055565b612f88848484612a89565b612f948484848461351a565b61213a5760405162461bcd60e51b8152600401808060200182810382526032815260200180613aa16032913960400191505060405180910390fd5b600060606000368080601f0160208091040260200160405190810160405280939291908181526020018383808284376000920191909152505050503601516001600160a01b031692915050565b6130268282612af0565b15613078576040805162461bcd60e51b815260206004820152601f60248201527f526f6c65733a206163636f756e7420616c72656164792068617320726f6c6500604482015290519081900360640190fd5b6001600160a01b0316600090815260209190915260409020805460ff19166001179055565b826001600160a01b03166130b08261187b565b6001600160a01b0316146130f55760405162461bcd60e51b8152600401808060200182810382526029815260200180613c4b6029913960400191505060405180910390fd5b6001600160a01b03821661313a5760405162461bcd60e51b8152600401808060200182810382526024815260200180613ad36024913960400191505060405180910390fd5b61314381613671565b6001600160a01b0383166000908152600360205260409020613164906136ac565b6001600160a01b0382166000908152600360205260409020613185906136c3565b60008181526001602052604080822080546001600160a01b0319166001600160a01b0386811691821790925591518493918716917fddf252ad1be2c89b69c2b068fc378daa952ba7f163c4a11628f55a4df523b3ef91a4505050565b6001600160a01b03821660009081526005602052604081205461320b90600163ffffffff6136cc16565b6000838152600660205260409020549091508082146132a6576001600160a01b038416600090815260056020526040812080548490811061324857fe5b906000526020600020015490508060056000876001600160a01b03166001600160a01b03168152602001908152602001600020838154811061328657fe5b600091825260208083209091019290925591825260069052604090208190555b6001600160a01b0384166000908152600560205260409020805490611f68906000198301613a3b565b6001600160a01b0390911660009081526005602081815260408084208054868652600684529185208290559282526001810183559183529091200155565b6133178282612af0565b6133525760405162461bcd60e51b8152600401808060200182810382526021815260200180613bdc6021913960400191505060405180910390fd5b6001600160a01b0316600090815260209190915260409020805460ff19169055565b61337e828261370e565b61338882826131e1565b600081815260066020526040812055612c92816137e5565b6001600160a01b0382166133fb576040805162461bcd60e51b815260206004820181905260248201527f4552433732313a206d696e7420746f20746865207a65726f2061646472657373604482015290519081900360640190fd5b61340481612955565b15613456576040805162461bcd60e51b815260206004820152601c60248201527f4552433732313a20746f6b656e20616c7265616479206d696e74656400000000604482015290519081900360640190fd5b600081815260016020908152604080832080546001600160a01b0319166001600160a01b038716908117909155835260039091529020613495906136c3565b60405181906001600160a01b038416906000907fddf252ad1be2c89b69c2b068fc378daa952ba7f163c4a11628f55a4df523b3ef908290a45050565b600780546000838152600860205260408120829055600182018355919091527fa66cc928b5edb82af9bd49922954155ab7b0942694bea4ce44661d9a8736c6880155565b600091565b600061352e846001600160a01b0316613881565b61353a57506001612a81565b6000846001600160a01b031663150b7a02613553612972565b8887876040518563ffffffff1660e01b815260040180856001600160a01b03166001600160a01b03168152602001846001600160a01b03166001600160a01b0316815260200183815260200180602001828103825283818151815260200191508051906020019080838360005b838110156135d85781810151838201526020016135c0565b50505050905090810190601f1680156136055780820380516001836020036101000a031916815260200191505b5095505050505050602060405180830381600087803b15801561362757600080fd5b505af115801561363b573d6000803e3d6000fd5b505050506040513d602081101561365157600080fd5b50516001600160e01b031916630a85bd0160e11b14915050949350505050565b6000818152600260205260409020546001600160a01b0316156110fe57600090815260026020526040902080546001600160a01b0319169055565b80546136bf90600163ffffffff6136cc16565b9055565b80546001019055565b6000611a2d83836040518060400160405280601e81526020017f536166654d6174683a207375627472616374696f6e206f766572666c6f7700008152506138b8565b816001600160a01b03166137218261187b565b6001600160a01b0316146137665760405162461bcd60e51b8152600401808060200182810382526025815260200180613dbd6025913960400191505060405180910390fd5b61376f81613671565b6001600160a01b0382166000908152600360205260409020613790906136ac565b60008181526001602052604080822080546001600160a01b0319169055518291906001600160a01b038516907fddf252ad1be2c89b69c2b068fc378daa952ba7f163c4a11628f55a4df523b3ef908390a45050565b6007546000906137fc90600163ffffffff6136cc16565b6000838152600860205260408120546007805493945090928490811061381e57fe5b90600052602060002001549050806007838154811061383957fe5b6000918252602080832090910192909255828152600890915260409020829055600780549061386c906000198301613a3b565b50505060009182525060086020526040812055565b6000813f7fc5d2460186f7233c927e7db2dcc703c0e500b653ca82273b7bfad8045d85a4708115801590612a815750141592915050565b600081848411156139475760405162461bcd60e51b81526004018080602001828103825283818151815260200191508051906020019080838360005b8381101561390c5781810151838201526020016138f4565b50505050905090810190601f1680156139395780820380516001836020036101000a031916815260200191505b509250505060405180910390fd5b505050900390565b828054600181600116156101000203166002900490600052602060002090601f016020900481019282601f106139905782800160ff198235161785556139bd565b828001600101855582156139bd579182015b828111156139bd5782358255916020019190600101906139a2565b506139c9929150613a5b565b5090565b828054600181600116156101000203166002900490600052602060002090601f016020900481019282601f10613a0e57805160ff19168380011785556139bd565b828001600101855582156139bd579182015b828111156139bd578251825591602001919060010190613a20565b81548183558181111561119e5760008381526020902061119e9181019083015b610f1d91905b808211156139c95760008155600101613a6156fe455243373231456e756d657261626c653a206f776e657220696e646578206f7574206f6620626f756e64734552433732313a207472616e7366657220746f206e6f6e20455243373231526563656976657220696d706c656d656e7465724552433732313a207472616e7366657220746f20746865207a65726f20616464726573734552433732313a206f70657261746f7220717565727920666f72206e6f6e6578697374656e7420746f6b656e4552433732313a20617070726f76652063616c6c6572206973206e6f74206f776e6572206e6f7220617070726f76656420666f7220616c6c47534e526563697069656e743a206e65772052656c617948756220697320746865207a65726f20616464726573734552433732313a2062616c616e636520717565727920666f7220746865207a65726f20616464726573734552433732313a206f776e657220717565727920666f72206e6f6e6578697374656e7420746f6b656e526f6c65733a206163636f756e7420646f6573206e6f74206861766520726f6c654552433732313a20617070726f76656420717565727920666f72206e6f6e6578697374656e7420746f6b656e526f6c65733a206163636f756e7420697320746865207a65726f20616464726573734552433732313a207472616e73666572206f6620746f6b656e2074686174206973206e6f74206f776e57686974656c69737441646d696e526f6c653a2063616c6c657220646f6573206e6f742068617665207468652057686974656c69737441646d696e20726f6c6547534e526563697069656e743a206e65772052656c6179487562206973207468652063757272656e74206f6e6557686974656c6973746564526f6c653a2063616c6c657220646f6573206e6f742068617665207468652057686974656c697374656420726f6c654552433732313a20617070726f76616c20746f2063757272656e74206f776e657247534e526563697069656e743a2063616c6c6572206973206e6f742052656c61794875624552433732313a207472616e736665722063616c6c6572206973206e6f74206f776e6572206e6f7220617070726f766564455243373231456e756d657261626c653a20676c6f62616c20696e646578206f7574206f6620626f756e64734552433732313a206275726e206f6620746f6b656e2074686174206973206e6f74206f776ea265627a7a72315820b93b24d099220b03f870c50afc3fe9a8da20b24718ccdab067816283bd1e177664736f6c634300050e0032526f6c65733a206163636f756e7420697320746865207a65726f206164647265737357686974656c69737441646d696e526f6c653a2063616c6c657220646f6573206e6f742068617665207468652057686974656c69737441646d696e20726f6c65",
  "source": "pragma solidity ^0.5.14;\n\nimport \"@openzeppelin/contracts/math/SafeMath.sol\";\nimport \"@openzeppelin/contracts/access/roles/WhitelistedRole.sol\";\nimport \"@openzeppelin/contracts/drafts/Strings.sol\";\n\nimport \"../interfaces/erc721/CustomERC721Full.sol\";\nimport \"../interfaces/ITokenlandiaTokenCreator.sol\";\nimport \"../GSN/TokenLandiaWhitelistGSNRecipient.sol\";\n\ncontract Tokenlandia is CustomERC721Full, ITokenlandiaTokenCreator, TokenLandiaWhitelistGSNRecipient {\n    using SafeMath for uint256;\n\n    string public tokenBaseURI = \"\";\n\n    struct Token {\n        string productCode;\n        string ipfsHash;\n    }\n\n    mapping(uint256 => Token) internal tokens;\n\n    // Reverse mapping so we can lookup the token from the product ID\n    mapping(string => uint256) internal productIdToTokenId;\n\n    modifier onlyWhenTokenExists(uint256 _tokenId) {\n        require(_exists(_tokenId), \"Token ID not valid\");\n        _;\n    }\n\n    constructor (string memory _tokenBaseURI) public\n    CustomERC721Full(\"TokenLandia NFT\", \"TLN\")\n    TokenLandiaWhitelistGSNRecipient() {\n        tokenBaseURI = _tokenBaseURI;\n    }\n\n    /**\n     * Mint a token to a specific recipient\n     * @dev Only callable from whitelisted address\n     * @param _tokenId uint256 id of the token\n     * @param _recipient address of the recipient\n     * @param _productCode string the product code identified - [productCode-tokenId] provides a uniqueness guarantee\n     * @param _ipfsHash string the IPFS hash\n     **/\n    function mintToken(\n        uint256 _tokenId,\n        address _recipient,\n        string calldata _productCode,\n        string calldata _ipfsHash\n    ) external onlyWhitelisted returns (bool success) {\n        require(bytes(_productCode).length > 0, \"Product code invalid\");\n        require(bytes(_ipfsHash).length > 0, \"IPFS hash invalid\");\n\n        // Create Token metadata\n        tokens[_tokenId] = Token({\n            productCode : _productCode,\n            ipfsHash : _ipfsHash\n            });\n\n        // Mint token\n        _mint(_recipient, _tokenId);\n\n        // Create reverse lookup from productId to tokenId\n        productIdToTokenId[string(abi.encodePacked(_productCode, \"-\", Strings.fromUint256(_tokenId)))] = _tokenId;\n\n        return true;\n    }\n\n    function ipfsUrlForProductId(string calldata productId)\n    external\n    view returns (\n        string memory _ipfsUrl\n    ) {\n        uint256 tokenId = productIdToTokenId[productId];\n        require(_exists(tokenId), \"Token not found for product ID\");\n        return string(abi.encodePacked(tokenBaseURI, tokens[tokenId].ipfsHash));\n    }\n\n    function attributes(uint256 _tokenId)\n    external\n    onlyWhenTokenExists(_tokenId) view returns (\n        string memory _productCode,\n        string memory _productId,\n        string memory _ipfsUrl\n    ) {\n        Token storage token = tokens[_tokenId];\n        return (\n        token.productCode,\n        string(abi.encodePacked(token.productCode, \"-\", Strings.fromUint256(_tokenId))),\n        string(abi.encodePacked(tokenBaseURI, token.ipfsHash))\n        );\n    }\n\n    function productCode(uint256 _tokenId)\n    external\n    onlyWhenTokenExists(_tokenId) view returns (string memory _productCode) {\n        Token storage token = tokens[_tokenId];\n        return token.productCode;\n    }\n\n    function productId(uint256 _tokenId)\n    external\n    onlyWhenTokenExists(_tokenId) view returns (string memory _productId) {\n        Token storage token = tokens[_tokenId];\n        return string(abi.encodePacked(token.productCode, \"-\", Strings.fromUint256(_tokenId)));\n    }\n\n    function tokenIdForProductId(string calldata _productId)\n    external\n    view returns (uint256 _tokenId) {\n        return productIdToTokenId[_productId];\n    }\n\n    function tokenURI(uint256 _tokenId)\n    external\n    onlyWhenTokenExists(_tokenId) view returns (string memory) {\n        return string(abi.encodePacked(tokenBaseURI, tokens[_tokenId].ipfsHash));\n    }\n\n    function tokensOfOwner(address owner)\n    external\n    view returns (uint256[] memory) {\n        return _tokensOfOwner(owner);\n    }\n\n    function updateProductCode(uint256 _tokenId, string calldata _productCode)\n    external\n    onlyWhitelisted onlyWhenTokenExists(_tokenId) {\n        Token storage token = tokens[_tokenId];\n        token.productCode = _productCode;\n\n        productIdToTokenId[string(abi.encodePacked(_productCode, \"-\", Strings.fromUint256(_tokenId)))] = _tokenId;\n    }\n\n    function updateIpfsHash(uint256 _tokenId, string calldata _newIpfsHash)\n    external\n    onlyWhitelisted onlyWhenTokenExists(_tokenId) {\n        require(bytes(_newIpfsHash).length != 0, \"New IPFS hash invalid\");\n        tokens[_tokenId].ipfsHash = _newIpfsHash;\n    }\n\n    function updateTokenBaseURI(string calldata _newBaseURI)\n    external\n    onlyWhitelistAdmin {\n        require(bytes(_newBaseURI).length != 0, \"Base URI invalid\");\n        tokenBaseURI = _newBaseURI;\n    }\n\n    /**\n     * @dev Burns a specific token.\n     * @dev Only callable from whitelisted address\n     * @param _tokenId uint256 id of the token to be burned.\n     */\n    function burn(uint256 _tokenId)\n    public\n    onlyWhitelistAdmin onlyWhenTokenExists(_tokenId) {\n        // Clean up product ID mapping\n        Token storage token = tokens[_tokenId];\n        delete productIdToTokenId[string(abi.encodePacked(token.productCode, \"-\", Strings.fromUint256(_tokenId)))];\n\n        _burn(_tokenId);\n    }\n\n}\n",
  "sourcePath": "/Users/Natalie/Projects/tokenlandia-contracts/contracts/token/Tokenlandia.sol",
  "compiler": {
    "name": "solc",
    "version": "0.5.14+commit.01f1aaa4.Emscripten.clang"
  },
  "schemaVersion": "3.1.0",
  "updatedAt": "2020-06-09T14:36:35.708Z",
  "networkType": "ethereum",
  "devdoc": {
    "methods": {
      "acceptRelayedCall(address,address,bytes,uint256,uint256,uint256,uint256,bytes,uint256)": {
        "details": "Ensures that only transactions with a trusted signature can be relayed through the GSN."
      },
      "approve(address,uint256)": {
        "details": "Approves another address to transfer the given token ID The zero address indicates there is no approved address. There can only be one approved address per token at a given time. Can only be called by the token owner or an approved operator.",
        "params": {
          "to": "address to be approved for the given token ID",
          "tokenId": "uint256 ID of the token to be approved"
        }
      },
      "balanceOf(address)": {
        "details": "Gets the balance of the specified address.",
        "params": {
          "owner": "address to query the balance of"
        },
        "return": "uint256 representing the amount owned by the passed address"
      },
      "burn(uint256)": {
        "details": "Burns a specific token.Only callable from whitelisted address",
        "params": {
          "_tokenId": "uint256 id of the token to be burned."
        }
      },
      "getApproved(uint256)": {
        "details": "Gets the approved address for a token ID, or zero if no address set Reverts if the token ID does not exist.",
        "params": {
          "tokenId": "uint256 ID of the token to query the approval of"
        },
        "return": "address currently approved for the given token ID"
      },
      "getHubAddr()": {
        "details": "Returns the address of the {IRelayHub} contract for this recipient."
      },
      "isApprovedForAll(address,address)": {
        "details": "Tells whether an operator is approved by a given owner.",
        "params": {
          "operator": "operator address which you want to query the approval of",
          "owner": "owner address which you want to query the approval of"
        },
        "return": "bool whether the given operator is approved by the given owner"
      },
      "mintToken(uint256,address,string,string)": {
        "details": "Only callable from whitelisted address",
        "params": {
          "_ipfsHash": "string the IPFS hash*",
          "_productCode": "string the product code identified - [productCode-tokenId] provides a uniqueness guarantee",
          "_recipient": "address of the recipient",
          "_tokenId": "uint256 id of the token"
        }
      },
      "name()": {
        "details": "Gets the token name.",
        "return": "string representing the token name"
      },
      "ownerOf(uint256)": {
        "details": "Gets the owner of the specified token ID.",
        "params": {
          "tokenId": "uint256 ID of the token to query the owner of"
        },
        "return": "address currently marked as the owner of the given token ID"
      },
      "postRelayedCall(bytes,bool,uint256,bytes32)": {
        "details": "See `IRelayRecipient.postRelayedCall`.     * This function should not be overriden directly, use `_postRelayedCall` instead.     * * Requirements:     * - the caller must be the `RelayHub` contract."
      },
      "preRelayedCall(bytes)": {
        "details": "See `IRelayRecipient.preRelayedCall`.     * This function should not be overriden directly, use `_preRelayedCall` instead.     * * Requirements:     * - the caller must be the `RelayHub` contract."
      },
      "relayHubVersion()": {
        "details": "Returns the version string of the {IRelayHub} for which this recipient implementation was built. If {_upgradeRelayHub} is used, the new {IRelayHub} instance should be compatible with this version."
      },
      "safeTransferFrom(address,address,uint256)": {
        "details": "Safely transfers the ownership of a given token ID to another address If the target address is a contract, it must implement {IERC721Receiver-onERC721Received}, which is called upon a safe transfer, and return the magic value `bytes4(keccak256(\"onERC721Received(address,address,uint256,bytes)\"))`; otherwise, the transfer is reverted. Requires the msg.sender to be the owner, approved, or operator",
        "params": {
          "from": "current owner of the token",
          "to": "address to receive the ownership of the given token ID",
          "tokenId": "uint256 ID of the token to be transferred"
        }
      },
      "safeTransferFrom(address,address,uint256,bytes)": {
        "details": "Safely transfers the ownership of a given token ID to another address If the target address is a contract, it must implement {IERC721Receiver-onERC721Received}, which is called upon a safe transfer, and return the magic value `bytes4(keccak256(\"onERC721Received(address,address,uint256,bytes)\"))`; otherwise, the transfer is reverted. Requires the _msgSender() to be the owner, approved, or operator",
        "params": {
          "_data": "bytes data to send along with a safe transfer check",
          "from": "current owner of the token",
          "to": "address to receive the ownership of the given token ID",
          "tokenId": "uint256 ID of the token to be transferred"
        }
      },
      "setApprovalForAll(address,bool)": {
        "details": "Sets or unsets the approval of a given operator An operator is allowed to transfer all tokens of the sender on their behalf.",
        "params": {
          "approved": "representing the status of the approval to be set",
          "to": "operator address to set the approval"
        }
      },
      "supportsInterface(bytes4)": {
        "details": "See {IERC165-supportsInterface}.     * Time complexity O(1), guaranteed to always use less than 30 000 gas."
      },
      "symbol()": {
        "details": "Gets the token symbol.",
        "return": "string representing the token symbol"
      },
      "tokenByIndex(uint256)": {
        "details": "Gets the token ID at a given index of all the tokens in this contract Reverts if the index is greater or equal to the total number of tokens.",
        "params": {
          "index": "uint256 representing the index to be accessed of the tokens list"
        },
        "return": "uint256 token ID at the given index of the tokens list"
      },
      "tokenOfOwnerByIndex(address,uint256)": {
        "details": "Gets the token ID at a given index of the tokens list of the requested owner.",
        "params": {
          "index": "uint256 representing the index to be accessed of the requested tokens list",
          "owner": "address owning the tokens list to be accessed"
        },
        "return": "uint256 token ID at the given index of the tokens list owned by the requested address"
      },
      "totalSupply()": {
        "details": "Gets the total amount of tokens stored by the contract.",
        "return": "uint256 representing the total amount of tokens"
      },
      "transferFrom(address,address,uint256)": {
        "details": "Transfers the ownership of a given token ID to another address. Usage of this method is discouraged, use {safeTransferFrom} whenever possible. Requires the msg.sender to be the owner, approved, or operator.",
        "params": {
          "from": "current owner of the token",
          "to": "address to receive the ownership of the given token ID",
          "tokenId": "uint256 ID of the token to be transferred"
        }
      }
    }
  },
  "userdoc": {
    "methods": {
      "mintToken(uint256,address,string,string)": {
        "notice": "Mint a token to a specific recipient"
      }
    }
  }
}