{
  "contractName": "VideoLatino",
  "abi": [
    {
      "inputs": [
        {
          "internalType": "string",
          "name": "_tokenBaseURI",
          "type": "string"
        }
      ],
      "payable": false,
      "stateMutability": "nonpayable",
      "type": "constructor"
    },
    {
      "anonymous": false,
      "inputs": [
        {
          "indexed": true,
          "internalType": "address",
          "name": "owner",
          "type": "address"
        },
        {
          "indexed": true,
          "internalType": "address",
          "name": "approved",
          "type": "address"
        },
        {
          "indexed": true,
          "internalType": "uint256",
          "name": "tokenId",
          "type": "uint256"
        }
      ],
      "name": "Approval",
      "type": "event"
    },
    {
      "anonymous": false,
      "inputs": [
        {
          "indexed": true,
          "internalType": "address",
          "name": "owner",
          "type": "address"
        },
        {
          "indexed": true,
          "internalType": "address",
          "name": "operator",
          "type": "address"
        },
        {
          "indexed": false,
          "internalType": "bool",
          "name": "approved",
          "type": "bool"
        }
      ],
      "name": "ApprovalForAll",
      "type": "event"
    },
    {
      "anonymous": false,
      "inputs": [
        {
          "indexed": true,
          "internalType": "address",
          "name": "creator",
          "type": "address"
        }
      ],
      "name": "ContractCreated",
      "type": "event"
    },
    {
      "anonymous": false,
      "inputs": [
        {
          "indexed": true,
          "internalType": "uint256",
          "name": "tokenId",
          "type": "uint256"
        },
        {
          "indexed": false,
          "internalType": "string",
          "name": "ipfsHash",
          "type": "string"
        },
        {
          "indexed": true,
          "internalType": "address",
          "name": "caller",
          "type": "address"
        }
      ],
      "name": "MetadataIpfsHashUpdated",
      "type": "event"
    },
    {
      "anonymous": false,
      "inputs": [
        {
          "indexed": true,
          "internalType": "address",
          "name": "oldRelayHub",
          "type": "address"
        },
        {
          "indexed": true,
          "internalType": "address",
          "name": "newRelayHub",
          "type": "address"
        }
      ],
      "name": "RelayHubChanged",
      "type": "event"
    },
    {
      "anonymous": false,
      "inputs": [
        {
          "indexed": false,
          "internalType": "string",
          "name": "tokenBaseURI",
          "type": "string"
        },
        {
          "indexed": true,
          "internalType": "address",
          "name": "caller",
          "type": "address"
        }
      ],
      "name": "TokenBaseURIUpdated",
      "type": "event"
    },
    {
      "anonymous": false,
      "inputs": [
        {
          "indexed": true,
          "internalType": "address",
          "name": "from",
          "type": "address"
        },
        {
          "indexed": true,
          "internalType": "address",
          "name": "to",
          "type": "address"
        },
        {
          "indexed": true,
          "internalType": "uint256",
          "name": "tokenId",
          "type": "uint256"
        }
      ],
      "name": "Transfer",
      "type": "event"
    },
    {
      "anonymous": false,
      "inputs": [
        {
          "indexed": true,
          "internalType": "uint256",
          "name": "tokenId",
          "type": "uint256"
        },
        {
          "indexed": false,
          "internalType": "string",
          "name": "productCode",
          "type": "string"
        },
        {
          "indexed": false,
          "internalType": "string",
          "name": "videoId",
          "type": "string"
        },
        {
          "indexed": true,
          "internalType": "address",
          "name": "caller",
          "type": "address"
        }
      ],
      "name": "VideoInfoUpdated",
      "type": "event"
    },
    {
      "anonymous": false,
      "inputs": [
        {
          "indexed": true,
          "internalType": "address",
          "name": "account",
          "type": "address"
        }
      ],
      "name": "WhitelistAdminAdded",
      "type": "event"
    },
    {
      "anonymous": false,
      "inputs": [
        {
          "indexed": true,
          "internalType": "address",
          "name": "account",
          "type": "address"
        }
      ],
      "name": "WhitelistAdminRemoved",
      "type": "event"
    },
    {
      "anonymous": false,
      "inputs": [
        {
          "indexed": true,
          "internalType": "address",
          "name": "account",
          "type": "address"
        }
      ],
      "name": "WhitelistedAdded",
      "type": "event"
    },
    {
      "anonymous": false,
      "inputs": [
        {
          "indexed": true,
          "internalType": "address",
          "name": "account",
          "type": "address"
        }
      ],
      "name": "WhitelistedRemoved",
      "type": "event"
    },
    {
      "constant": true,
      "inputs": [
        {
          "internalType": "address",
          "name": "relay",
          "type": "address"
        },
        {
          "internalType": "address",
          "name": "from",
          "type": "address"
        },
        {
          "internalType": "bytes",
          "name": "encodedFunction",
          "type": "bytes"
        },
        {
          "internalType": "uint256",
          "name": "transactionFee",
          "type": "uint256"
        },
        {
          "internalType": "uint256",
          "name": "gasPrice",
          "type": "uint256"
        },
        {
          "internalType": "uint256",
          "name": "gasLimit",
          "type": "uint256"
        },
        {
          "internalType": "uint256",
          "name": "nonce",
          "type": "uint256"
        },
        {
          "internalType": "bytes",
          "name": "approvalData",
          "type": "bytes"
        },
        {
          "internalType": "uint256",
          "name": "",
          "type": "uint256"
        }
      ],
      "name": "acceptRelayedCall",
      "outputs": [
        {
          "internalType": "uint256",
          "name": "",
          "type": "uint256"
        },
        {
          "internalType": "bytes",
          "name": "",
          "type": "bytes"
        }
      ],
      "payable": false,
      "stateMutability": "view",
      "type": "function"
    },
    {
      "constant": false,
      "inputs": [
        {
          "internalType": "address",
          "name": "account",
          "type": "address"
        }
      ],
      "name": "addWhitelistAdmin",
      "outputs": [],
      "payable": false,
      "stateMutability": "nonpayable",
      "type": "function"
    },
    {
      "constant": false,
      "inputs": [
        {
          "internalType": "address",
          "name": "account",
          "type": "address"
        }
      ],
      "name": "addWhitelisted",
      "outputs": [],
      "payable": false,
      "stateMutability": "nonpayable",
      "type": "function"
    },
    {
      "constant": false,
      "inputs": [
        {
          "internalType": "address",
          "name": "to",
          "type": "address"
        },
        {
          "internalType": "uint256",
          "name": "tokenId",
          "type": "uint256"
        }
      ],
      "name": "approve",
      "outputs": [],
      "payable": false,
      "stateMutability": "nonpayable",
      "type": "function"
    },
    {
      "constant": true,
      "inputs": [
        {
          "internalType": "address",
          "name": "owner",
          "type": "address"
        }
      ],
      "name": "balanceOf",
      "outputs": [
        {
          "internalType": "uint256",
          "name": "",
          "type": "uint256"
        }
      ],
      "payable": false,
      "stateMutability": "view",
      "type": "function"
    },
    {
      "constant": true,
      "inputs": [
        {
          "internalType": "uint256",
          "name": "tokenId",
          "type": "uint256"
        }
      ],
      "name": "getApproved",
      "outputs": [
        {
          "internalType": "address",
          "name": "",
          "type": "address"
        }
      ],
      "payable": false,
      "stateMutability": "view",
      "type": "function"
    },
    {
      "constant": true,
      "inputs": [],
      "name": "getHubAddr",
      "outputs": [
        {
          "internalType": "address",
          "name": "",
          "type": "address"
        }
      ],
      "payable": false,
      "stateMutability": "view",
      "type": "function"
    },
    {
      "constant": true,
      "inputs": [
        {
          "internalType": "address",
          "name": "owner",
          "type": "address"
        },
        {
          "internalType": "address",
          "name": "operator",
          "type": "address"
        }
      ],
      "name": "isApprovedForAll",
      "outputs": [
        {
          "internalType": "bool",
          "name": "",
          "type": "bool"
        }
      ],
      "payable": false,
      "stateMutability": "view",
      "type": "function"
    },
    {
      "constant": true,
      "inputs": [
        {
          "internalType": "address",
          "name": "account",
          "type": "address"
        }
      ],
      "name": "isWhitelistAdmin",
      "outputs": [
        {
          "internalType": "bool",
          "name": "",
          "type": "bool"
        }
      ],
      "payable": false,
      "stateMutability": "view",
      "type": "function"
    },
    {
      "constant": true,
      "inputs": [
        {
          "internalType": "address",
          "name": "account",
          "type": "address"
        }
      ],
      "name": "isWhitelisted",
      "outputs": [
        {
          "internalType": "bool",
          "name": "",
          "type": "bool"
        }
      ],
      "payable": false,
      "stateMutability": "view",
      "type": "function"
    },
    {
      "constant": true,
      "inputs": [],
      "name": "name",
      "outputs": [
        {
          "internalType": "string",
          "name": "",
          "type": "string"
        }
      ],
      "payable": false,
      "stateMutability": "view",
      "type": "function"
    },
    {
      "constant": true,
      "inputs": [
        {
          "internalType": "uint256",
          "name": "tokenId",
          "type": "uint256"
        }
      ],
      "name": "ownerOf",
      "outputs": [
        {
          "internalType": "address",
          "name": "",
          "type": "address"
        }
      ],
      "payable": false,
      "stateMutability": "view",
      "type": "function"
    },
    {
      "constant": false,
      "inputs": [
        {
          "internalType": "bytes",
          "name": "context",
          "type": "bytes"
        },
        {
          "internalType": "bool",
          "name": "success",
          "type": "bool"
        },
        {
          "internalType": "uint256",
          "name": "actualCharge",
          "type": "uint256"
        },
        {
          "internalType": "bytes32",
          "name": "preRetVal",
          "type": "bytes32"
        }
      ],
      "name": "postRelayedCall",
      "outputs": [],
      "payable": false,
      "stateMutability": "nonpayable",
      "type": "function"
    },
    {
      "constant": false,
      "inputs": [
        {
          "internalType": "bytes",
          "name": "context",
          "type": "bytes"
        }
      ],
      "name": "preRelayedCall",
      "outputs": [
        {
          "internalType": "bytes32",
          "name": "",
          "type": "bytes32"
        }
      ],
      "payable": false,
      "stateMutability": "nonpayable",
      "type": "function"
    },
    {
      "constant": true,
      "inputs": [],
      "name": "relayHubVersion",
      "outputs": [
        {
          "internalType": "string",
          "name": "",
          "type": "string"
        }
      ],
      "payable": false,
      "stateMutability": "view",
      "type": "function"
    },
    {
      "constant": false,
      "inputs": [
        {
          "internalType": "address",
          "name": "account",
          "type": "address"
        }
      ],
      "name": "removeWhitelisted",
      "outputs": [],
      "payable": false,
      "stateMutability": "nonpayable",
      "type": "function"
    },
    {
      "constant": false,
      "inputs": [],
      "name": "renounceWhitelistAdmin",
      "outputs": [],
      "payable": false,
      "stateMutability": "nonpayable",
      "type": "function"
    },
    {
      "constant": false,
      "inputs": [],
      "name": "renounceWhitelisted",
      "outputs": [],
      "payable": false,
      "stateMutability": "nonpayable",
      "type": "function"
    },
    {
      "constant": false,
      "inputs": [
        {
          "internalType": "address",
          "name": "from",
          "type": "address"
        },
        {
          "internalType": "address",
          "name": "to",
          "type": "address"
        },
        {
          "internalType": "uint256",
          "name": "tokenId",
          "type": "uint256"
        }
      ],
      "name": "safeTransferFrom",
      "outputs": [],
      "payable": false,
      "stateMutability": "nonpayable",
      "type": "function"
    },
    {
      "constant": false,
      "inputs": [
        {
          "internalType": "address",
          "name": "from",
          "type": "address"
        },
        {
          "internalType": "address",
          "name": "to",
          "type": "address"
        },
        {
          "internalType": "uint256",
          "name": "tokenId",
          "type": "uint256"
        },
        {
          "internalType": "bytes",
          "name": "_data",
          "type": "bytes"
        }
      ],
      "name": "safeTransferFrom",
      "outputs": [],
      "payable": false,
      "stateMutability": "nonpayable",
      "type": "function"
    },
    {
      "constant": false,
      "inputs": [
        {
          "internalType": "address",
          "name": "to",
          "type": "address"
        },
        {
          "internalType": "bool",
          "name": "approved",
          "type": "bool"
        }
      ],
      "name": "setApprovalForAll",
      "outputs": [],
      "payable": false,
      "stateMutability": "nonpayable",
      "type": "function"
    },
    {
      "constant": true,
      "inputs": [
        {
          "internalType": "bytes4",
          "name": "interfaceId",
          "type": "bytes4"
        }
      ],
      "name": "supportsInterface",
      "outputs": [
        {
          "internalType": "bool",
          "name": "",
          "type": "bool"
        }
      ],
      "payable": false,
      "stateMutability": "view",
      "type": "function"
    },
    {
      "constant": true,
      "inputs": [],
      "name": "symbol",
      "outputs": [
        {
          "internalType": "string",
          "name": "",
          "type": "string"
        }
      ],
      "payable": false,
      "stateMutability": "view",
      "type": "function"
    },
    {
      "constant": true,
      "inputs": [],
      "name": "tokenBaseURI",
      "outputs": [
        {
          "internalType": "string",
          "name": "",
          "type": "string"
        }
      ],
      "payable": false,
      "stateMutability": "view",
      "type": "function"
    },
    {
      "constant": true,
      "inputs": [
        {
          "internalType": "uint256",
          "name": "index",
          "type": "uint256"
        }
      ],
      "name": "tokenByIndex",
      "outputs": [
        {
          "internalType": "uint256",
          "name": "",
          "type": "uint256"
        }
      ],
      "payable": false,
      "stateMutability": "view",
      "type": "function"
    },
    {
      "constant": true,
      "inputs": [
        {
          "internalType": "address",
          "name": "owner",
          "type": "address"
        },
        {
          "internalType": "uint256",
          "name": "index",
          "type": "uint256"
        }
      ],
      "name": "tokenOfOwnerByIndex",
      "outputs": [
        {
          "internalType": "uint256",
          "name": "",
          "type": "uint256"
        }
      ],
      "payable": false,
      "stateMutability": "view",
      "type": "function"
    },
    {
      "constant": true,
      "inputs": [
        {
          "internalType": "uint256",
          "name": "",
          "type": "uint256"
        }
      ],
      "name": "tokens",
      "outputs": [
        {
          "internalType": "string",
          "name": "productCode",
          "type": "string"
        },
        {
          "internalType": "string",
          "name": "metadataIpfsHash",
          "type": "string"
        }
      ],
      "payable": false,
      "stateMutability": "view",
      "type": "function"
    },
    {
      "constant": true,
      "inputs": [],
      "name": "totalSupply",
      "outputs": [
        {
          "internalType": "uint256",
          "name": "",
          "type": "uint256"
        }
      ],
      "payable": false,
      "stateMutability": "view",
      "type": "function"
    },
    {
      "constant": false,
      "inputs": [
        {
          "internalType": "address",
          "name": "from",
          "type": "address"
        },
        {
          "internalType": "address",
          "name": "to",
          "type": "address"
        },
        {
          "internalType": "uint256",
          "name": "tokenId",
          "type": "uint256"
        }
      ],
      "name": "transferFrom",
      "outputs": [],
      "payable": false,
      "stateMutability": "nonpayable",
      "type": "function"
    },
    {
      "constant": false,
      "inputs": [
        {
          "internalType": "address",
          "name": "newRelayHub",
          "type": "address"
        }
      ],
      "name": "upgradeRelayHub",
      "outputs": [],
      "payable": false,
      "stateMutability": "nonpayable",
      "type": "function"
    },
    {
      "constant": false,
      "inputs": [
        {
          "internalType": "uint256",
          "name": "_tokenId",
          "type": "uint256"
        },
        {
          "internalType": "address",
          "name": "_recipient",
          "type": "address"
        },
        {
          "internalType": "string",
          "name": "_productCode",
          "type": "string"
        },
        {
          "internalType": "string",
          "name": "_metadataIpfsHash",
          "type": "string"
        }
      ],
      "name": "mintToken",
      "outputs": [
        {
          "internalType": "bool",
          "name": "success",
          "type": "bool"
        }
      ],
      "payable": false,
      "stateMutability": "nonpayable",
      "type": "function"
    },
    {
      "constant": true,
      "inputs": [
        {
          "internalType": "uint256",
          "name": "_tokenId",
          "type": "uint256"
        }
      ],
      "name": "attributes",
      "outputs": [
        {
          "internalType": "string",
          "name": "_productCode",
          "type": "string"
        },
        {
          "internalType": "string",
          "name": "_metadataIpfsHash",
          "type": "string"
        }
      ],
      "payable": false,
      "stateMutability": "view",
      "type": "function"
    },
    {
      "constant": true,
      "inputs": [
        {
          "internalType": "uint256",
          "name": "_tokenId",
          "type": "uint256"
        }
      ],
      "name": "videoId",
      "outputs": [
        {
          "internalType": "string",
          "name": "_videoId",
          "type": "string"
        }
      ],
      "payable": false,
      "stateMutability": "view",
      "type": "function"
    },
    {
      "constant": true,
      "inputs": [
        {
          "internalType": "string",
          "name": "_videoId",
          "type": "string"
        }
      ],
      "name": "tokenIdForVideoId",
      "outputs": [
        {
          "internalType": "uint256",
          "name": "_tokenId",
          "type": "uint256"
        }
      ],
      "payable": false,
      "stateMutability": "view",
      "type": "function"
    },
    {
      "constant": true,
      "inputs": [
        {
          "internalType": "uint256",
          "name": "_tokenId",
          "type": "uint256"
        }
      ],
      "name": "tokenURI",
      "outputs": [
        {
          "internalType": "string",
          "name": "",
          "type": "string"
        }
      ],
      "payable": false,
      "stateMutability": "view",
      "type": "function"
    },
    {
      "constant": true,
      "inputs": [
        {
          "internalType": "address",
          "name": "owner",
          "type": "address"
        }
      ],
      "name": "tokensOfOwner",
      "outputs": [
        {
          "internalType": "uint256[]",
          "name": "",
          "type": "uint256[]"
        }
      ],
      "payable": false,
      "stateMutability": "view",
      "type": "function"
    },
    {
      "constant": false,
      "inputs": [
        {
          "internalType": "uint256",
          "name": "_tokenId",
          "type": "uint256"
        },
        {
          "internalType": "string",
          "name": "_productCode",
          "type": "string"
        }
      ],
      "name": "updateProductCodeForToken",
      "outputs": [],
      "payable": false,
      "stateMutability": "nonpayable",
      "type": "function"
    },
    {
      "constant": false,
      "inputs": [
        {
          "internalType": "uint256",
          "name": "_tokenId",
          "type": "uint256"
        },
        {
          "internalType": "string",
          "name": "_newIpfsHash",
          "type": "string"
        }
      ],
      "name": "updateMetadataIpfsHash",
      "outputs": [],
      "payable": false,
      "stateMutability": "nonpayable",
      "type": "function"
    },
    {
      "constant": false,
      "inputs": [
        {
          "internalType": "string",
          "name": "_newBaseURI",
          "type": "string"
        }
      ],
      "name": "updateTokenBaseURI",
      "outputs": [],
      "payable": false,
      "stateMutability": "nonpayable",
      "type": "function"
    },
    {
      "constant": false,
      "inputs": [
        {
          "internalType": "uint256",
          "name": "_tokenId",
          "type": "uint256"
        }
      ],
      "name": "burn",
      "outputs": [],
      "payable": false,
      "stateMutability": "nonpayable",
      "type": "function"
    }
  ],
  "bytecode": "0x600d80546001600160a01b03191673d216153c06e857cd7f72665e0af1d7d82172f49417905560a06040819052600060808190526200004191600e91620005f9565b503480156200004f57600080fd5b506040516200463938038062004639833981810160405260208110156200007557600080fd5b81019080805160405193929190846401000000008211156200009657600080fd5b908301906020820185811115620000ac57600080fd5b8251640100000000811182820188101715620000c757600080fd5b82525081516020918201929091019080838360005b83811015620000f6578181015183820152602001620000dc565b50505050905090810190601f168015620001245780820380516001836020036101000a031916815260200191505b5060408181018152601082526f159a59195bc813185d1a5b9bc813919560821b6020808401919091528151808301909252600382526215925160ea1b90820152909350915082905081620001886301ffc9a760e01b6001600160e01b03620002b916565b620001a36380ac58cd60e01b6001600160e01b03620002b916565b620001be63780e9d6360e01b6001600160e01b03620002b916565b8151620001d3906009906020850190620005f9565b508051620001e990600a906020840190620005f9565b5062000205635b5e139f60e01b6001600160e01b03620002b916565b505050506200022c6200021d6200033e60201b60201c565b6001600160e01b036200037516565b62000254620002436001600160e01b036200033e16565b620003c760201b62000fcb1760201c565b80516200026990600e906020840190620005f9565b506200027d6001600160e01b036200033e16565b6001600160a01b03167fcf78cf0d6f3d8371e1075c69c492ab4ec5d8cf23a1a239b6a51a1d00be7ca31260405160405180910390a2506200069b565b6001600160e01b0319808216141562000319576040805162461bcd60e51b815260206004820152601c60248201527f4552433136353a20696e76616c696420696e7465726661636520696400000000604482015290519081900360640190fd5b6001600160e01b0319166000908152602081905260409020805460ff19166001179055565b600d546000906001600160a01b031633146200035c57503362000372565b6200036f6001600160e01b036200044116565b90505b90565b6200039081600b6200048e60201b62002f9b1790919060201c565b6040516001600160a01b038216907f22380c05984257a1cb900161c713dd71d39e74820f1aea43bd3f1bdd2096129990600090a250565b620003ed620003de6001600160e01b036200033e16565b6001600160e01b036200051b16565b6200042a5760405162461bcd60e51b8152600401808060200182810382526040815260200180620045f96040913960400191505060405180910390fd5b6200043e816001600160e01b036200053e16565b50565b600060606000368080601f0160208091040260200160405190810160405280939291908181526020018383808284376000920191909152505050503601516001600160a01b031692915050565b620004a382826001600160e01b036200059016565b15620004f6576040805162461bcd60e51b815260206004820152601f60248201527f526f6c65733a206163636f756e7420616c72656164792068617320726f6c6500604482015290519081900360640190fd5b6001600160a01b0316600090815260209190915260409020805460ff19166001179055565b60006200053882600b6200059060201b62002b371790919060201c565b92915050565b6200055981600c6200048e60201b62002f9b1790919060201c565b6040516001600160a01b038216907fee1504a83b6d4a361f4c1dc78ab59bfa30d6a3b6612c403e86bb01ef2984295f90600090a250565b60006001600160a01b038216620005d95760405162461bcd60e51b8152600401808060200182810382526022815260200180620045d76022913960400191505060405180910390fd5b506001600160a01b03166000908152602091909152604090205460ff1690565b828054600181600116156101000203166002900490600052602060002090601f016020900481019282601f106200063c57805160ff19168380011785556200066c565b828001600101855582156200066c579182015b828111156200066c5782518255916020019190600101906200064f565b506200067a9291506200067e565b5090565b6200037291905b808211156200067a576000815560010162000685565b613f2c80620006ab6000396000f3fe608060405234801561001057600080fd5b50600436106102485760003560e01c806370a082311161013b578063a22cb465116100b8578063d05dcc6a1161007c578063d05dcc6a14610c4a578063d6cd947314610c67578063e06e0e2214610c6f578063e985e9c514610ceb578063f4068c9714610d1957610248565b8063a22cb46514610b0d578063ad61ccd514610b3b578063b88d4fde14610b43578063bb5f747b14610c07578063c87b56dd14610c2d57610248565b80638462151c116100ff5780638462151c146109d757806395d89b4114610a4d57806397ac0d4214610a555780639e30a59014610aca5780639eba091114610af057610248565b806370a08231146107a85780637362d9c8146107ce57806374e861d6146107f457806380274db7146107fc57806383947ea01461086a57610248565b80632f745c59116101c95780634e99b8001161018d5780634e99b800146105985780634f64b2be146105a05780634f6ccce71461069b5780636289fa61146106b85780636352211e1461078b57610248565b80632f745c59146104eb5780633af32abf1461051757806342842e0e1461053d57806342966c68146105735780634c5a628c1461059057610248565b806318160ddd1161021057806318160ddd146103925780632295ee5b146103ac57806323b872dd1461041a578063291d9549146104505780632d59d0351461047657610248565b806301ffc9a71461024d57806306fdde0314610288578063081812fc14610305578063095ea7b31461033e57806310154bad1461036c575b600080fd5b6102746004803603602081101561026357600080fd5b50356001600160e01b031916610d87565b604080519115158252519081900360200190f35b610290610daa565b6040805160208082528351818301528351919283929083019185019080838360005b838110156102ca5781810151838201526020016102b2565b50505050905090810190601f1680156102f75780820380516001836020036101000a031916815260200191505b509250505060405180910390f35b6103226004803603602081101561031b57600080fd5b5035610e41565b604080516001600160a01b039092168252519081900360200190f35b61036a6004803603604081101561035457600080fd5b506001600160a01b038135169060200135610ea3565b005b61036a6004803603602081101561038257600080fd5b50356001600160a01b0316610fcb565b61039a611022565b60408051918252519081900360200190f35b61036a600480360360208110156103c257600080fd5b810190602081018135600160201b8111156103dc57600080fd5b8201836020820111156103ee57600080fd5b803590602001918460018302840111600160201b8311171561040f57600080fd5b509092509050611028565b61036a6004803603606081101561043057600080fd5b506001600160a01b0381358116916020810135909116906040013561112c565b61036a6004803603602081101561046657600080fd5b50356001600160a01b0316611188565b61036a6004803603604081101561048c57600080fd5b81359190810190604081016020820135600160201b8111156104ad57600080fd5b8201836020820111156104bf57600080fd5b803590602001918460018302840111600160201b831117156104e057600080fd5b5090925090506111d7565b61039a6004803603604081101561050157600080fd5b506001600160a01b0381351690602001356114c3565b6102746004803603602081101561052d57600080fd5b50356001600160a01b0316611543565b61036a6004803603606081101561055357600080fd5b506001600160a01b03813581169160208101359091169060400135611556565b61036a6004803603602081101561058957600080fd5b5035611571565b61036a6116a0565b6102906116b2565b6105bd600480360360208110156105b657600080fd5b5035611740565b604051808060200180602001838103835285818151815260200191508051906020019080838360005b838110156105fe5781810151838201526020016105e6565b50505050905090810190601f16801561062b5780820380516001836020036101000a031916815260200191505b50838103825284518152845160209182019186019080838360005b8381101561065e578181015183820152602001610646565b50505050905090810190601f16801561068b5780820380516001836020036101000a031916815260200191505b5094505050505060405180910390f35b61039a600480360360208110156106b157600080fd5b503561187f565b610274600480360360808110156106ce57600080fd5b8135916001600160a01b0360208201351691810190606081016040820135600160201b8111156106fd57600080fd5b82018360208201111561070f57600080fd5b803590602001918460018302840111600160201b8311171561073057600080fd5b919390929091602081019035600160201b81111561074d57600080fd5b82018360208201111561075f57600080fd5b803590602001918460018302840111600160201b8311171561078057600080fd5b5090925090506118e5565b610322600480360360208110156107a157600080fd5b5035611b7b565b61039a600480360360208110156107be57600080fd5b50356001600160a01b0316611bcf565b61036a600480360360208110156107e457600080fd5b50356001600160a01b0316611c37565b610322611c86565b61039a6004803603602081101561081257600080fd5b810190602081018135600160201b81111561082c57600080fd5b82018360208201111561083e57600080fd5b803590602001918460018302840111600160201b8311171561085f57600080fd5b509092509050611c95565b610958600480360361012081101561088157600080fd5b6001600160a01b038235811692602081013590911691810190606081016040820135600160201b8111156108b457600080fd5b8201836020820111156108c657600080fd5b803590602001918460018302840111600160201b831117156108e757600080fd5b9193909282359260208101359260408201359260608301359260a081019060800135600160201b81111561091a57600080fd5b82018360208201111561092c57600080fd5b803590602001918460018302840111600160201b8311171561094d57600080fd5b919350915035611d34565b6040518083815260200180602001828103825283818151815260200191508051906020019080838360005b8381101561099b578181015183820152602001610983565b50505050905090810190601f1680156109c85780820380516001836020036101000a031916815260200191505b50935050505060405180910390f35b6109fd600480360360208110156109ed57600080fd5b50356001600160a01b0316611e74565b60408051602080825283518183015283519192839290830191858101910280838360005b83811015610a39578181015183820152602001610a21565b505050509050019250505060405180910390f35b610290611ed5565b61036a60048036036040811015610a6b57600080fd5b81359190810190604081016020820135600160201b811115610a8c57600080fd5b820183602082011115610a9e57600080fd5b803590602001918460018302840111600160201b83111715610abf57600080fd5b509092509050611f36565b61036a60048036036020811015610ae057600080fd5b50356001600160a01b0316612095565b61029060048036036020811015610b0657600080fd5b50356120e4565b61036a60048036036040811015610b2357600080fd5b506001600160a01b0381351690602001351515612353565b610290612458565b61036a60048036036080811015610b5957600080fd5b6001600160a01b03823581169260208101359091169160408201359190810190608081016060820135600160201b811115610b9357600080fd5b820183602082011115610ba557600080fd5b803590602001918460018302840111600160201b83111715610bc657600080fd5b91908080601f016020809104026020016040519081016040528093929190818152602001838380828437600092019190915250929550612477945050505050565b61027460048036036020811015610c1d57600080fd5b50356001600160a01b03166124d5565b61029060048036036020811015610c4357600080fd5b50356124e8565b6105bd60048036036020811015610c6057600080fd5b503561261a565b61036a6127c7565b61036a60048036036080811015610c8557600080fd5b810190602081018135600160201b811115610c9f57600080fd5b820183602082011115610cb157600080fd5b803590602001918460018302840111600160201b83111715610cd257600080fd5b91935091508035151590602081013590604001356127d7565b61027460048036036040811015610d0157600080fd5b506001600160a01b0381358116916020013516612879565b61039a60048036036020811015610d2f57600080fd5b810190602081018135600160201b811115610d4957600080fd5b820183602082011115610d5b57600080fd5b803590602001918460018302840111600160201b83111715610d7c57600080fd5b5090925090506128a7565b6001600160e01b0319811660009081526020819052604090205460ff165b919050565b60098054604080516020601f6002600019610100600188161502019095169490940493840181900481028201810190925282815260609390929091830182828015610e365780601f10610e0b57610100808354040283529160200191610e36565b820191906000526020600020905b815481529060010190602001808311610e1957829003601f168201915b505050505090505b90565b6000610e4c826128d8565b610e875760405162461bcd60e51b815260040180806020018281038252602c815260200180613c0f602c913960400191505060405180910390fd5b506000908152600260205260409020546001600160a01b031690565b6000610eae82611b7b565b9050806001600160a01b0316836001600160a01b03161415610f015760405162461bcd60e51b8152600401808060200182810382526021815260200180613dba6021913960400191505060405180910390fd5b806001600160a01b0316610f136128f5565b6001600160a01b03161480610f345750610f3481610f2f6128f5565b612879565b610f6f5760405162461bcd60e51b8152600401808060200182810382526038815260200180613b356038913960400191505060405180910390fd5b60008281526002602052604080822080546001600160a01b0319166001600160a01b0387811691821790925591518593918516917f8c5be1e5ebec7d5bd14f71427d1e84f3dd0314c0f7b2291e5b200ac8c7c3b92591a4505050565b610fdb610fd66128f5565b6124d5565b6110165760405162461bcd60e51b8152600401808060200182810382526040815260200180613c866040913960400191505060405180910390fd5b61101f81612920565b50565b60075490565b611033610fd66128f5565b61106e5760405162461bcd60e51b8152600401808060200182810382526040815260200180613c866040913960400191505060405180910390fd5b806110aa5760405162461bcd60e51b8152600401808060200182810382526030815260200180613e816030913960400191505060405180910390fd5b6110b6600e83836138ce565b506110bf6128f5565b6001600160a01b03167fecbe52d6244cad232c6e5b4c8bec235bafe148503d0d72f44e3fe9f7da301856838360405180806020018281038252848482818152602001925080828437600083820152604051601f909101601f19169092018290039550909350505050a25050565b61113d6111376128f5565b82612968565b6111785760405162461bcd60e51b8152600401808060200182810382526031815260200180613dff6031913960400191505060405180910390fd5b611183838383612a0c565b505050565b611193610fd66128f5565b6111ce5760405162461bcd60e51b8152600401808060200182810382526040815260200180613c866040913960400191505060405180910390fd5b61101f81612a2b565b6111e76111e26128f5565b611543565b6112225760405162461bcd60e51b815260040180806020018281038252603a815260200180613d80603a913960400191505060405180910390fd5b8261122c816128d8565b6112675760405162461bcd60e51b8152600401808060200182810382526035815260200180613b006035913960400191505060405180910390fd5b6010611272856120e4565b6040518082805190602001908083835b602083106112a15780518252601f199092019160209182019101611282565b51815160209384036101000a6000190180199092169116179052920194855250604051938490030190922060009055506060905083836112e087612a73565b60405160200180848480828437602d60f81b920191825250825160019091019060208401908083835b602083106113285780518252601f199092019160209182019101611309565b6001836020036101000a03801982511681845116808217855250505050505090500193505050506040516020818303038152906040529050846010826040518082805190602001908083835b602083106113935780518252601f199092019160209182019101611374565b51815160209384036101000a6000190180199092169116179052920194855250604080519485900382019094209490945550506000878152600f90925290206113dd8186866138ce565b506113e66128f5565b6001600160a01b0316867f5f2b8972aac2ccc1587be3a6fcc2c7df3705ce7ec058ae1ce21136fa5bfd94fb87878660405180806020018060200183810383528686828181526020019250808284376000838201819052601f909101601f191690920185810384528651815286516020918201939188019250908190849084905b8381101561147e578181015183820152602001611466565b50505050905090810190601f1680156114ab5780820380516001836020036101000a031916815260200191505b509550505050505060405180910390a3505050505050565b60006114ce83611bcf565b821061150b5760405162461bcd60e51b815260040180806020018281038252602b815260200180613a53602b913960400191505060405180910390fd5b6001600160a01b038316600090815260056020526040902080548390811061152f57fe5b906000526020600020015490505b92915050565b600061153d600c8363ffffffff612b3716565b61118383838360405180602001604052806000815250612477565b61157c610fd66128f5565b6115b75760405162461bcd60e51b8152600401808060200182810382526040815260200180613c866040913960400191505060405180910390fd5b806115c1816128d8565b6115fc5760405162461bcd60e51b8152600401808060200182810382526035815260200180613b006035913960400191505060405180910390fd5b6010611607836120e4565b6040518082805190602001908083835b602083106116365780518252601f199092019160209182019101611617565b51815160209384036101000a600019018019909216911617905292019485525060408051948590038201909420600090819055868152600f9091529283209291506116839050828261394c565b61169160018301600061394c565b505061169c82612b9e565b5050565b6116b06116ab6128f5565b612bb0565b565b600e805460408051602060026001851615610100026000190190941693909304601f810184900484028201840190925281815292918301828280156117385780601f1061170d57610100808354040283529160200191611738565b820191906000526020600020905b81548152906001019060200180831161171b57829003601f168201915b505050505081565b600f6020908152600091825260409182902080548351601f600260001961010060018616150201909316929092049182018490048402810184019094528084529092918391908301828280156117d75780601f106117ac576101008083540402835291602001916117d7565b820191906000526020600020905b8154815290600101906020018083116117ba57829003601f168201915b505050505090806001018054600181600116156101000203166002900480601f0160208091040260200160405190810160405280929190818152602001828054600181600116156101000203166002900480156118755780601f1061184a57610100808354040283529160200191611875565b820191906000526020600020905b81548152906001019060200180831161185857829003601f168201915b5050505050905082565b6000611889611022565b82106118c65760405162461bcd60e51b815260040180806020018281038252602c815260200180613e30602c913960400191505060405180910390fd5b600782815481106118d357fe5b90600052602060002001549050919050565b60006118f26111e26128f5565b61192d5760405162461bcd60e51b815260040180806020018281038252603a815260200180613d80603a913960400191505060405180910390fd5b83801580159061193e575060078111155b6119795760405162461bcd60e51b8152600401808060200182810382526047815260200180613eb16047913960600191505060405180910390fd5b602e83146119b85760405162461bcd60e51b8152600401808060200182810382526044815260200180613cf36044913960600191505060405180910390fd5b506040805160606020601f88018190040282018101835291810186815290918291908890889081908501838280828437600092019190915250505090825250604080516020601f8701819004810282018101909252858152918101919086908690819084018382808284376000920182905250939094525050898152600f6020908152604090912083518051919350611a55928492910190613990565b506020828101518051611a6e9260018501920190613990565b50905050611a7c8688612bf8565b60608585611a898a612a73565b60405160200180848480828437602d60f81b920191825250825160019091019060208401908083835b60208310611ad15780518252601f199092019160209182019101611ab2565b6001836020036101000a03801982511681845116808217855250505050505090500193505050506040516020818303038152906040529050876010826040518082805190602001908083835b60208310611b3c5780518252601f199092019160209182019101611b1d565b51815160209384036101000a60001901801990921691161790529201948552506040519384900301909220929092555060019998505050505050505050565b6000818152600160205260408120546001600160a01b03168061153d5760405162461bcd60e51b8152600401808060200182810382526029815260200180613bc56029913960400191505060405180910390fd5b60006001600160a01b038216611c165760405162461bcd60e51b815260040180806020018281038252602a815260200180613b9b602a913960400191505060405180910390fd5b6001600160a01b038216600090815260036020526040902061153d90612c15565b611c42610fd66128f5565b611c7d5760405162461bcd60e51b8152600401808060200182810382526040815260200180613c866040913960400191505060405180910390fd5b61101f81612c19565b600d546001600160a01b031690565b6000611c9f611c86565b6001600160a01b0316336001600160a01b031614611cee5760405162461bcd60e51b8152600401808060200182810382526024815260200180613ddb6024913960400191505060405180910390fd5b611d2d83838080601f016020809104026020016040519081016040528093929190818152602001838380828437600092019190915250612c6192505050565b9392505050565b60006060808d8d8d8d8d8d8d8d611d49611c86565b30604051602001808b6001600160a01b03166001600160a01b031660601b81526014018a6001600160a01b03166001600160a01b031660601b81526014018989808284379190910197885250506020808701959095526040808701949094526060808701939093526bffffffffffffffffffffffff1991831b8216608087015290911b1660948401528051608881850301815260c8601f8e018490049093028401830190915260a883018c815290975060009650611e3f95506111e2945092508b918b918291018382808284376000920191909152505086516020880120611e3392509050612c67565b9063ffffffff612cb816565b90508015611e5a57611e4f612da6565b935093505050611e64565b611e4f6000612dca565b9b509b9950505050505050505050565b6060611e7f82612de2565b805480602002602001604051908101604052809291908181526020018280548015611ec957602002820191906000526020600020905b815481526020019060010190808311611eb5575b50505050509050919050565b600a8054604080516020601f6002600019610100600188161502019095169490940493840181900481028201810190925282815260609390929091830182828015610e365780601f10610e0b57610100808354040283529160200191610e36565b611f416111e26128f5565b611f7c5760405162461bcd60e51b815260040180806020018281038252603a815260200180613d80603a913960400191505060405180910390fd5b82611f86816128d8565b611fc15760405162461bcd60e51b8152600401808060200182810382526035815260200180613b006035913960400191505060405180910390fd5b602e82146120005760405162461bcd60e51b8152600401808060200182810382526049815260200180613d376049913960600191505060405180910390fd5b6000848152600f6020526040902061201c9060010184846138ce565b506120256128f5565b6001600160a01b0316847f73c664bdbd7dd8d0c1a28e506f35043b1fc38279ef860fc91234950f8c9713da858560405180806020018281038252848482818152602001925080828437600083820152604051601f909101601f19169092018290039550909350505050a350505050565b6120a0610fd66128f5565b6120db5760405162461bcd60e51b8152600401808060200182810382526040815260200180613c866040913960400191505060405180910390fd5b61101f81612dfc565b6060816120f0816128d8565b61212b5760405162461bcd60e51b8152600401808060200182810382526035815260200180613b006035913960400191505060405180910390fd5b6121336139fe565b6000848152600f60209081526040918290208251815460026001821615610100026000190190911604601f81018490049093028101606090810185529381018381529093919284928491908401828280156121cf5780601f106121a4576101008083540402835291602001916121cf565b820191906000526020600020905b8154815290600101906020018083116121b257829003601f168201915b50505050508152602001600182018054600181600116156101000203166002900480601f0160208091040260200160405190810160405280929190818152602001828054600181600116156101000203166002900480156122715780601f1061224657610100808354040283529160200191612271565b820191906000526020600020905b81548152906001019060200180831161225457829003601f168201915b5050505050815250509050806000015161228a85612a73565b6040516020018083805190602001908083835b602083106122bc5780518252601f19909201916020918201910161229d565b6001836020036101000a03801982511681845116808217855250505050505090500180602d60f81b81525060010182805190602001908083835b602083106123155780518252601f1990920191602091820191016122f6565b6001836020036101000a0380198251168184511680821785525050505050509050019250505060405160208183030381529060405292505050919050565b61235b6128f5565b6001600160a01b0316826001600160a01b031614156123c1576040805162461bcd60e51b815260206004820152601960248201527f4552433732313a20617070726f766520746f2063616c6c657200000000000000604482015290519081900360640190fd5b80600460006123ce6128f5565b6001600160a01b03908116825260208083019390935260409182016000908120918716808252919093529120805460ff1916921515929092179091556124126128f5565b60408051841515815290516001600160a01b0392909216917f17307eab39ab6107e8899845ad3d59bd9653f200f220920489ca2b5937696c319181900360200190a35050565b6040805180820190915260058152640312e302e360dc1b602082015290565b6124886124826128f5565b83612968565b6124c35760405162461bcd60e51b8152600401808060200182810382526031815260200180613dff6031913960400191505060405180910390fd5b6124cf84848484612efc565b50505050565b600061153d600b8363ffffffff612b3716565b6060816124f4816128d8565b61252f5760405162461bcd60e51b8152600401808060200182810382526035815260200180613b006035913960400191505060405180910390fd5b600e600f600085815260200190815260200160002060010160405160200180838054600181600116156101000203166002900480156125a55780601f106125835761010080835404028352918201916125a5565b820191906000526020600020905b815481529060010190602001808311612591575b5050828054600181600116156101000203166002900480156125fe5780601f106125dc5761010080835404028352918201916125fe565b820191906000526020600020905b8154815290600101906020018083116125ea575b505060408051601f198184030181529190529695505050505050565b60608082612627816128d8565b6126625760405162461bcd60e51b8152600401808060200182810382526035815260200180613b006035913960400191505060405180910390fd5b61266a6139fe565b6000858152600f60209081526040918290208251815460026001821615610100026000190190911604601f81018490049093028101606090810185529381018381529093919284928491908401828280156127065780601f106126db57610100808354040283529160200191612706565b820191906000526020600020905b8154815290600101906020018083116126e957829003601f168201915b50505050508152602001600182018054600181600116156101000203166002900480601f0160208091040260200160405190810160405280929190818152602001828054600181600116156101000203166002900480156127a85780601f1061277d576101008083540402835291602001916127a8565b820191906000526020600020905b81548152906001019060200180831161278b57829003601f168201915b5050509190925250508151602090920151919550909350505050915091565b6116b06127d26128f5565b612a2b565b6127df611c86565b6001600160a01b0316336001600160a01b03161461282e5760405162461bcd60e51b8152600401808060200182810382526024815260200180613ddb6024913960400191505060405180910390fd5b61287285858080601f0160208091040260200160405190810160405280939291908181526020018383808284376000920191909152508792508691508590506124cf565b5050505050565b6001600160a01b03918216600090815260046020908152604080832093909416825291909152205460ff1690565b6000601083836040518083838082843791909101948552505060405192839003602001909220549250505092915050565b6000908152600160205260409020546001600160a01b0316151590565b600d546000906001600160a01b03163314612911575033610e3e565b612919612f4e565b9050610e3e565b612931600c8263ffffffff612f9b16565b6040516001600160a01b038216907fee1504a83b6d4a361f4c1dc78ab59bfa30d6a3b6612c403e86bb01ef2984295f90600090a250565b6000612973826128d8565b6129ae5760405162461bcd60e51b815260040180806020018281038252602c815260200180613ad4602c913960400191505060405180910390fd5b60006129b983611b7b565b9050806001600160a01b0316846001600160a01b031614806129f45750836001600160a01b03166129e984610e41565b6001600160a01b0316145b80612a045750612a048185612879565b949350505050565b612a1783838361301c565b612a218382613160565b611183828261324e565b612a3c600c8263ffffffff61328c16565b6040516001600160a01b038216907f270d9b30cf5b0793bbfd54c9d5b94aeb49462b8148399000265144a8722da6b690600090a250565b606081612a9857506040805180820190915260018152600360fc1b6020820152610da5565b8160005b8115612ab057600101600a82049150612a9c565b6060816040519080825280601f01601f191660200182016040528015612add576020820181803883390190505b50859350905060001982015b8315612b2e57600a840660300160f81b82828060019003935081518110612b0c57fe5b60200101906001600160f81b031916908160001a905350600a84049350612ae9565b50949350505050565b60006001600160a01b038216612b7e5760405162461bcd60e51b8152600401808060200182810382526022815260200180613c3b6022913960400191505060405180910390fd5b506001600160a01b03166000908152602091909152604090205460ff1690565b61101f612baa82611b7b565b826132f3565b612bc1600b8263ffffffff61328c16565b6040516001600160a01b038216907f0a8eb35e5ca14b3d6f28e4abf2f128dbab231a58b56e89beb5d636115001e16590600090a250565b612c02828261331f565b612c0c828261324e565b61169c81613450565b5490565b612c2a600b8263ffffffff612f9b16565b6040516001600160a01b038216907f22380c05984257a1cb900161c713dd71d39e74820f1aea43bd3f1bdd2096129990600090a250565b50600090565b604080517f19457468657265756d205369676e6564204d6573736167653a0a333200000000602080830191909152603c8083019490945282518083039094018452605c909101909152815191012090565b60008151604114612ccb5750600061153d565b60208201516040830151606084015160001a7f7fffffffffffffffffffffffffffffff5d576e7357a4501ddfe92f46681b20a0821115612d11576000935050505061153d565b8060ff16601b14158015612d2957508060ff16601c14155b15612d3a576000935050505061153d565b6040805160008152602080820180845289905260ff8416828401526060820186905260808201859052915160019260a0808401939192601f1981019281900390910190855afa158015612d91573d6000803e3d6000fd5b5050604051601f190151979650505050505050565b60006060612dc260405180602001604052806000815250613494565b915091509091565b604080516020810190915260008152600b9190910191565b6001600160a01b0316600090815260056020526040902090565b600d546001600160a01b03908116908216612e485760405162461bcd60e51b815260040180806020018281038252602e815260200180613b6d602e913960400191505060405180910390fd5b806001600160a01b0316826001600160a01b03161415612e995760405162461bcd60e51b815260040180806020018281038252602d815260200180613cc6602d913960400191505060405180910390fd5b816001600160a01b0316816001600160a01b03167fb9f84b8e65164b14439ae3620df0a4d8786d896996c0282b683f9d8c08f046e860405160405180910390a350600d80546001600160a01b0319166001600160a01b0392909216919091179055565b612f07848484612a0c565b612f1384848484613499565b6124cf5760405162461bcd60e51b8152600401808060200182810382526032815260200180613a7e6032913960400191505060405180910390fd5b600060606000368080601f0160208091040260200160405190810160405280939291908181526020018383808284376000920191909152505050503601516001600160a01b031692915050565b612fa58282612b37565b15612ff7576040805162461bcd60e51b815260206004820152601f60248201527f526f6c65733a206163636f756e7420616c72656164792068617320726f6c6500604482015290519081900360640190fd5b6001600160a01b0316600090815260209190915260409020805460ff19166001179055565b826001600160a01b031661302f82611b7b565b6001600160a01b0316146130745760405162461bcd60e51b8152600401808060200182810382526029815260200180613c5d6029913960400191505060405180910390fd5b6001600160a01b0382166130b95760405162461bcd60e51b8152600401808060200182810382526024815260200180613ab06024913960400191505060405180910390fd5b6130c2816135f0565b6001600160a01b03831660009081526003602052604090206130e39061362b565b6001600160a01b038216600090815260036020526040902061310490613642565b60008181526001602052604080822080546001600160a01b0319166001600160a01b0386811691821790925591518493918716917fddf252ad1be2c89b69c2b068fc378daa952ba7f163c4a11628f55a4df523b3ef91a4505050565b6001600160a01b03821660009081526005602052604081205461318a90600163ffffffff61364b16565b600083815260066020526040902054909150808214613225576001600160a01b03841660009081526005602052604081208054849081106131c757fe5b906000526020600020015490508060056000876001600160a01b03166001600160a01b03168152602001908152602001600020838154811061320557fe5b600091825260208083209091019290925591825260069052604090208190555b6001600160a01b0384166000908152600560205260409020805490612872906000198301613a18565b6001600160a01b0390911660009081526005602081815260408084208054868652600684529185208290559282526001810183559183529091200155565b6132968282612b37565b6132d15760405162461bcd60e51b8152600401808060200182810382526021815260200180613bee6021913960400191505060405180910390fd5b6001600160a01b0316600090815260209190915260409020805460ff19169055565b6132fd828261368d565b6133078282613160565b60008181526006602052604081205561169c81613764565b6001600160a01b03821661337a576040805162461bcd60e51b815260206004820181905260248201527f4552433732313a206d696e7420746f20746865207a65726f2061646472657373604482015290519081900360640190fd5b613383816128d8565b156133d5576040805162461bcd60e51b815260206004820152601c60248201527f4552433732313a20746f6b656e20616c7265616479206d696e74656400000000604482015290519081900360640190fd5b600081815260016020908152604080832080546001600160a01b0319166001600160a01b03871690811790915583526003909152902061341490613642565b60405181906001600160a01b038416906000907fddf252ad1be2c89b69c2b068fc378daa952ba7f163c4a11628f55a4df523b3ef908290a45050565b600780546000838152600860205260408120829055600182018355919091527fa66cc928b5edb82af9bd49922954155ab7b0942694bea4ce44661d9a8736c6880155565b600091565b60006134ad846001600160a01b0316613800565b6134b957506001612a04565b6000846001600160a01b031663150b7a026134d26128f5565b8887876040518563ffffffff1660e01b815260040180856001600160a01b03166001600160a01b03168152602001846001600160a01b03166001600160a01b0316815260200183815260200180602001828103825283818151815260200191508051906020019080838360005b8381101561355757818101518382015260200161353f565b50505050905090810190601f1680156135845780820380516001836020036101000a031916815260200191505b5095505050505050602060405180830381600087803b1580156135a657600080fd5b505af11580156135ba573d6000803e3d6000fd5b505050506040513d60208110156135d057600080fd5b50516001600160e01b031916630a85bd0160e11b14915050949350505050565b6000818152600260205260409020546001600160a01b03161561101f57600090815260026020526040902080546001600160a01b0319169055565b805461363e90600163ffffffff61364b16565b9055565b80546001019055565b6000611d2d83836040518060400160405280601e81526020017f536166654d6174683a207375627472616374696f6e206f766572666c6f770000815250613837565b816001600160a01b03166136a082611b7b565b6001600160a01b0316146136e55760405162461bcd60e51b8152600401808060200182810382526025815260200180613e5c6025913960400191505060405180910390fd5b6136ee816135f0565b6001600160a01b038216600090815260036020526040902061370f9061362b565b60008181526001602052604080822080546001600160a01b0319169055518291906001600160a01b038516907fddf252ad1be2c89b69c2b068fc378daa952ba7f163c4a11628f55a4df523b3ef908390a45050565b60075460009061377b90600163ffffffff61364b16565b6000838152600860205260408120546007805493945090928490811061379d57fe5b9060005260206000200154905080600783815481106137b857fe5b600091825260208083209091019290925582815260089091526040902082905560078054906137eb906000198301613a18565b50505060009182525060086020526040812055565b6000813f7fc5d2460186f7233c927e7db2dcc703c0e500b653ca82273b7bfad8045d85a4708115801590612a045750141592915050565b600081848411156138c65760405162461bcd60e51b81526004018080602001828103825283818151815260200191508051906020019080838360005b8381101561388b578181015183820152602001613873565b50505050905090810190601f1680156138b85780820380516001836020036101000a031916815260200191505b509250505060405180910390fd5b505050900390565b828054600181600116156101000203166002900490600052602060002090601f016020900481019282601f1061390f5782800160ff1982351617855561393c565b8280016001018555821561393c579182015b8281111561393c578235825591602001919060010190613921565b50613948929150613a38565b5090565b50805460018160011615610100020316600290046000825580601f10613972575061101f565b601f01602090049060005260206000209081019061101f9190613a38565b828054600181600116156101000203166002900490600052602060002090601f016020900481019282601f106139d157805160ff191683800117855561393c565b8280016001018555821561393c579182015b8281111561393c5782518255916020019190600101906139e3565b604051806040016040528060608152602001606081525090565b815481835581811115611183576000838152602090206111839181019083015b610e3e91905b808211156139485760008155600101613a3e56fe455243373231456e756d657261626c653a206f776e657220696e646578206f7574206f6620626f756e64734552433732313a207472616e7366657220746f206e6f6e20455243373231526563656976657220696d706c656d656e7465724552433732313a207472616e7366657220746f20746865207a65726f20616464726573734552433732313a206f70657261746f7220717565727920666f72206e6f6e6578697374656e7420746f6b656e566964656f4c6174696e6f2e6f6e6c795768656e546f6b656e4578697374733a20546f6b656e20646f6573206e6f742065786973744552433732313a20617070726f76652063616c6c6572206973206e6f74206f776e6572206e6f7220617070726f76656420666f7220616c6c47534e526563697069656e743a206e65772052656c617948756220697320746865207a65726f20616464726573734552433732313a2062616c616e636520717565727920666f7220746865207a65726f20616464726573734552433732313a206f776e657220717565727920666f72206e6f6e6578697374656e7420746f6b656e526f6c65733a206163636f756e7420646f6573206e6f74206861766520726f6c654552433732313a20617070726f76656420717565727920666f72206e6f6e6578697374656e7420746f6b656e526f6c65733a206163636f756e7420697320746865207a65726f20616464726573734552433732313a207472616e73666572206f6620746f6b656e2074686174206973206e6f74206f776e57686974656c69737441646d696e526f6c653a2063616c6c657220646f6573206e6f742068617665207468652057686974656c69737441646d696e20726f6c6547534e526563697069656e743a206e65772052656c6179487562206973207468652063757272656e74206f6e65566964656f4c6174696e6f2e6d696e74546f6b656e3a204d6574616461746120495046532068617368206d7573742062652034362063686172616374657273206c6f6e67566964656f4c6174696e6f2e7570646174654d6574616461746149706673486173683a20495046532068617368206d7573742062652034362063686172616374657273206c6f6e672e57686974656c6973746564526f6c653a2063616c6c657220646f6573206e6f742068617665207468652057686974656c697374656420726f6c654552433732313a20617070726f76616c20746f2063757272656e74206f776e657247534e526563697069656e743a2063616c6c6572206973206e6f742052656c61794875624552433732313a207472616e736665722063616c6c6572206973206e6f74206f776e6572206e6f7220617070726f766564455243373231456e756d657261626c653a20676c6f62616c20696e646578206f7574206f6620626f756e64734552433732313a206275726e206f6620746f6b656e2074686174206973206e6f74206f776e566964656f4c6174696e6f2e757064617465546f6b656e426173655552493a20426173652055524920696e76616c6964566964656f4c6174696e6f2e6d696e74546f6b656e3a2050726f6475637420636f6465206d757374206265206265747765656e203120616e64203720636861726163746572732ea265627a7a72315820b300343c62c248f0804163b542b0b7ff8a22fb137caf4b0b46215399c4c8cae864736f6c634300050e0032526f6c65733a206163636f756e7420697320746865207a65726f206164647265737357686974656c69737441646d696e526f6c653a2063616c6c657220646f6573206e6f742068617665207468652057686974656c69737441646d696e20726f6c65",
  "source": "pragma solidity ^0.5.14;\n\nimport \"@openzeppelin/contracts/math/SafeMath.sol\";\nimport \"@openzeppelin/contracts/access/roles/WhitelistedRole.sol\";\nimport \"@openzeppelin/contracts/drafts/Strings.sol\";\n\nimport \"../interfaces/erc721/CustomERC721Full.sol\";\nimport \"../interfaces/IVideoLatinoTokenCreator.sol\";\nimport \"../GSN/TokenLandiaWhitelistGSNRecipient.sol\";\n\ncontract VideoLatino is CustomERC721Full, IVideoLatinoTokenCreator, TokenLandiaWhitelistGSNRecipient {\n    using SafeMath for uint256;\n\n    event ContractCreated(\n        address indexed creator\n    );\n\n    event VideoInfoUpdated(\n        uint256 indexed tokenId,\n        string productCode,\n        string videoId,\n        address indexed caller\n    );\n\n    event MetadataIpfsHashUpdated(\n        uint256 indexed tokenId,\n        string ipfsHash,\n        address indexed caller\n    );\n\n    event TokenBaseURIUpdated(\n        string tokenBaseURI,\n        address indexed caller\n    );\n\n    string public tokenBaseURI = \"\";\n\n    struct Token {\n        string productCode;\n        string metadataIpfsHash;\n    }\n\n    mapping(uint256 => Token) public tokens;\n\n    // Reverse mapping so we can lookup the token from the video ID\n    mapping(string => uint256) internal videoIdToTokenId;\n\n    modifier onlyWhenTokenExists(uint256 _tokenId) {\n        require(_exists(_tokenId), \"VideoLatino.onlyWhenTokenExists: Token does not exist\");\n        _;\n    }\n\n    constructor (string memory _tokenBaseURI) public\n    CustomERC721Full(\"Video Latino NFT\", \"VID\")\n    TokenLandiaWhitelistGSNRecipient() {\n        tokenBaseURI = _tokenBaseURI;\n        emit ContractCreated(_msgSender());\n    }\n\n    /**\n     * Mint a token to a specific recipient\n     * @dev Only callable from whitelisted address\n     * @param _tokenId uint256 id of the token\n     * @param _recipient address of the recipient\n     * @param _productCode Made up of country of origin and celebrity initials\n     * @param _metadataIpfsHash IPFS CID for the metadata associated with the token\n     **/\n    function mintToken(\n        uint256 _tokenId,\n        address _recipient,\n        string calldata _productCode,\n        string calldata _metadataIpfsHash\n    ) external onlyWhitelisted returns (bool success) {\n        // New scope to stop stack too deep. These vars are not needed after the scope anyway...\n        {\n            // Max 3 chars for country of origin, one char for dash and max 3 for celebrity initials\n            uint256 productCodeLength = bytes(_productCode).length;\n            require(productCodeLength > 0 && productCodeLength <= 7, \"VideoLatino.mintToken: Product code must be between 1 and 7 characters.\");\n\n            require(bytes(_metadataIpfsHash).length == 46, \"VideoLatino.mintToken: Metadata IPFS hash must be 46 characters long\");\n        }\n\n        // Create Token metadata\n        tokens[_tokenId] = Token({\n            productCode: _productCode,\n            metadataIpfsHash: _metadataIpfsHash\n            });\n\n        // Mint token\n        _mint(_recipient, _tokenId);\n\n        // Create reverse lookup from videoId to tokenId\n        string memory videoId = string(\n            abi.encodePacked(\n                _productCode,\n                \"-\",\n                Strings.fromUint256(_tokenId)\n            )\n        );\n\n        videoIdToTokenId[videoId] = _tokenId;\n\n        return true;\n    }\n\n    function attributes(uint256 _tokenId)\n    external\n    onlyWhenTokenExists(_tokenId) view returns (\n        string memory _productCode,\n        string memory _metadataIpfsHash\n    ) {\n        Token memory token = tokens[_tokenId];\n        return (\n            token.productCode,\n            token.metadataIpfsHash\n        );\n    }\n\n    function videoId(uint256 _tokenId)\n    public\n    onlyWhenTokenExists(_tokenId) view returns (string memory _videoId) {\n        Token memory token = tokens[_tokenId];\n        return string(\n            abi.encodePacked(\n                token.productCode,\n                \"-\",\n                Strings.fromUint256(_tokenId)\n            )\n        );\n    }\n\n    function tokenIdForVideoId(string calldata _videoId)\n    external\n    view returns (uint256 _tokenId) {\n        return videoIdToTokenId[_videoId];\n    }\n\n    function tokenURI(uint256 _tokenId) external onlyWhenTokenExists(_tokenId) view returns (string memory) {\n        return string(abi.encodePacked(tokenBaseURI, tokens[_tokenId].metadataIpfsHash));\n    }\n\n    function tokensOfOwner(address owner)\n    external\n    view returns (uint256[] memory) {\n        return _tokensOfOwner(owner);\n    }\n\n    function updateProductCodeForToken(\n        uint256 _tokenId,\n        string calldata _productCode) external\n    onlyWhitelisted onlyWhenTokenExists(_tokenId) {\n        // Invalidate original videoId -> tokenId mapping\n        delete videoIdToTokenId[videoId(_tokenId)];\n\n        string memory newVideoId = string(\n            abi.encodePacked(\n                _productCode,\n                \"-\",\n                Strings.fromUint256(_tokenId)\n            )\n        );\n\n        // Add new videoId -> tokenId mapping\n        videoIdToTokenId[newVideoId] = _tokenId;\n\n        // Update token info\n        Token storage token = tokens[_tokenId];\n        token.productCode = _productCode;\n\n        emit VideoInfoUpdated(_tokenId, _productCode, newVideoId, _msgSender());\n    }\n\n    function updateMetadataIpfsHash(uint256 _tokenId, string calldata _newIpfsHash)\n    external\n    onlyWhitelisted onlyWhenTokenExists(_tokenId) {\n        require(bytes(_newIpfsHash).length == 46, \"VideoLatino.updateMetadataIpfsHash: IPFS hash must be 46 characters long.\");\n        tokens[_tokenId].metadataIpfsHash = _newIpfsHash;\n        emit MetadataIpfsHashUpdated(_tokenId, _newIpfsHash, _msgSender());\n    }\n\n    function updateTokenBaseURI(string calldata _newBaseURI)\n    external\n    onlyWhitelistAdmin {\n        require(bytes(_newBaseURI).length != 0, \"VideoLatino.updateTokenBaseURI: Base URI invalid\");\n        tokenBaseURI = _newBaseURI;\n        emit TokenBaseURIUpdated(_newBaseURI, _msgSender());\n    }\n\n    /**\n     * @dev Burns a specific token.\n     * @dev Only callable from whitelisted address\n     * @param _tokenId uint256 id of the token to be burned.\n     */\n    function burn(uint256 _tokenId)\n    public\n    onlyWhitelistAdmin onlyWhenTokenExists(_tokenId) {\n        // Clean up videoIdToTokenId mapping and tokens\n        delete videoIdToTokenId[videoId(_tokenId)];\n        delete tokens[_tokenId];\n\n        // Finally burn the token\n        _burn(_tokenId);\n    }\n\n}\n",
  "sourcePath": "/Users/Natalie/Projects/tokenlandia-contracts/contracts/token/VideoLatino.sol",
  "compiler": {
    "name": "solc",
    "version": "0.5.14+commit.01f1aaa4.Emscripten.clang"
  },
  "schemaVersion": "3.1.0",
  "updatedAt": "2020-06-23T10:03:29.078Z",
  "networkType": "ethereum",
  "devdoc": {
    "methods": {
      "acceptRelayedCall(address,address,bytes,uint256,uint256,uint256,uint256,bytes,uint256)": {
        "details": "Ensures that only transactions with a trusted signature can be relayed through the GSN."
      },
      "approve(address,uint256)": {
        "details": "Approves another address to transfer the given token ID The zero address indicates there is no approved address. There can only be one approved address per token at a given time. Can only be called by the token owner or an approved operator.",
        "params": {
          "to": "address to be approved for the given token ID",
          "tokenId": "uint256 ID of the token to be approved"
        }
      },
      "balanceOf(address)": {
        "details": "Gets the balance of the specified address.",
        "params": {
          "owner": "address to query the balance of"
        },
        "return": "uint256 representing the amount owned by the passed address"
      },
      "burn(uint256)": {
        "details": "Burns a specific token.Only callable from whitelisted address",
        "params": {
          "_tokenId": "uint256 id of the token to be burned."
        }
      },
      "getApproved(uint256)": {
        "details": "Gets the approved address for a token ID, or zero if no address set Reverts if the token ID does not exist.",
        "params": {
          "tokenId": "uint256 ID of the token to query the approval of"
        },
        "return": "address currently approved for the given token ID"
      },
      "getHubAddr()": {
        "details": "Returns the address of the {IRelayHub} contract for this recipient."
      },
      "isApprovedForAll(address,address)": {
        "details": "Tells whether an operator is approved by a given owner.",
        "params": {
          "operator": "operator address which you want to query the approval of",
          "owner": "owner address which you want to query the approval of"
        },
        "return": "bool whether the given operator is approved by the given owner"
      },
      "mintToken(uint256,address,string,string)": {
        "details": "Only callable from whitelisted address",
        "params": {
          "_metadataIpfsHash": "IPFS CID for the metadata associated with the token*",
          "_productCode": "Made up of country of origin and celebrity initials",
          "_recipient": "address of the recipient",
          "_tokenId": "uint256 id of the token"
        }
      },
      "name()": {
        "details": "Gets the token name.",
        "return": "string representing the token name"
      },
      "ownerOf(uint256)": {
        "details": "Gets the owner of the specified token ID.",
        "params": {
          "tokenId": "uint256 ID of the token to query the owner of"
        },
        "return": "address currently marked as the owner of the given token ID"
      },
      "postRelayedCall(bytes,bool,uint256,bytes32)": {
        "details": "See `IRelayRecipient.postRelayedCall`.     * This function should not be overriden directly, use `_postRelayedCall` instead.     * * Requirements:     * - the caller must be the `RelayHub` contract."
      },
      "preRelayedCall(bytes)": {
        "details": "See `IRelayRecipient.preRelayedCall`.     * This function should not be overriden directly, use `_preRelayedCall` instead.     * * Requirements:     * - the caller must be the `RelayHub` contract."
      },
      "relayHubVersion()": {
        "details": "Returns the version string of the {IRelayHub} for which this recipient implementation was built. If {_upgradeRelayHub} is used, the new {IRelayHub} instance should be compatible with this version."
      },
      "safeTransferFrom(address,address,uint256)": {
        "details": "Safely transfers the ownership of a given token ID to another address If the target address is a contract, it must implement {IERC721Receiver-onERC721Received}, which is called upon a safe transfer, and return the magic value `bytes4(keccak256(\"onERC721Received(address,address,uint256,bytes)\"))`; otherwise, the transfer is reverted. Requires the msg.sender to be the owner, approved, or operator",
        "params": {
          "from": "current owner of the token",
          "to": "address to receive the ownership of the given token ID",
          "tokenId": "uint256 ID of the token to be transferred"
        }
      },
      "safeTransferFrom(address,address,uint256,bytes)": {
        "details": "Safely transfers the ownership of a given token ID to another address If the target address is a contract, it must implement {IERC721Receiver-onERC721Received}, which is called upon a safe transfer, and return the magic value `bytes4(keccak256(\"onERC721Received(address,address,uint256,bytes)\"))`; otherwise, the transfer is reverted. Requires the _msgSender() to be the owner, approved, or operator",
        "params": {
          "_data": "bytes data to send along with a safe transfer check",
          "from": "current owner of the token",
          "to": "address to receive the ownership of the given token ID",
          "tokenId": "uint256 ID of the token to be transferred"
        }
      },
      "setApprovalForAll(address,bool)": {
        "details": "Sets or unsets the approval of a given operator An operator is allowed to transfer all tokens of the sender on their behalf.",
        "params": {
          "approved": "representing the status of the approval to be set",
          "to": "operator address to set the approval"
        }
      },
      "supportsInterface(bytes4)": {
        "details": "See {IERC165-supportsInterface}.     * Time complexity O(1), guaranteed to always use less than 30 000 gas."
      },
      "symbol()": {
        "details": "Gets the token symbol.",
        "return": "string representing the token symbol"
      },
      "tokenByIndex(uint256)": {
        "details": "Gets the token ID at a given index of all the tokens in this contract Reverts if the index is greater or equal to the total number of tokens.",
        "params": {
          "index": "uint256 representing the index to be accessed of the tokens list"
        },
        "return": "uint256 token ID at the given index of the tokens list"
      },
      "tokenOfOwnerByIndex(address,uint256)": {
        "details": "Gets the token ID at a given index of the tokens list of the requested owner.",
        "params": {
          "index": "uint256 representing the index to be accessed of the requested tokens list",
          "owner": "address owning the tokens list to be accessed"
        },
        "return": "uint256 token ID at the given index of the tokens list owned by the requested address"
      },
      "totalSupply()": {
        "details": "Gets the total amount of tokens stored by the contract.",
        "return": "uint256 representing the total amount of tokens"
      },
      "transferFrom(address,address,uint256)": {
        "details": "Transfers the ownership of a given token ID to another address. Usage of this method is discouraged, use {safeTransferFrom} whenever possible. Requires the msg.sender to be the owner, approved, or operator.",
        "params": {
          "from": "current owner of the token",
          "to": "address to receive the ownership of the given token ID",
          "tokenId": "uint256 ID of the token to be transferred"
        }
      }
    }
  },
  "userdoc": {
    "methods": {
      "mintToken(uint256,address,string,string)": {
        "notice": "Mint a token to a specific recipient"
      }
    }
  }
}